:020000040800F2
:10000000287F00207D020008AF2A00087B2300081B
:10001000AD2A0008B5060008E13200080000000023
:10002000000000000000000000000000C101000806
:10003000290900080000000015020008392C0008FA
:10004000970200089702000897020008970200082C
:10005000970200089702000897020008970200081C
:10006000970200082B090008970200089702000871
:1000700097020008970200089702000897020008FC
:1000800097020008970200089702000897020008EC
:10009000B9060008970200089702000897020008B6
:1000A00097020008970200089702000897020008CC
:1000B00097020008970200089702000897020008BC
:1000C00097020008970200089702000897020008AC
:1000D000970200089702000897020008970200089C
:1000E000970200089702000897020008970200088C
:1000F000970200089702000897020008970200087C
:10010000970200089702000897020008970200086B
:100110009702000897020008970200083D2D00088A
:1001200097020008610800086D080008970200089F
:10013000970200089702000897020008970200083B
:10014000C5060008970200089702000897020008F9
:100150009702000879080008970200089702000833
:10016000970200089702000897020008970200080B
:10017000970200089702000897020008000000009C
:1001800097020008970200089702000897020008EB
:1001900097020008970200089702000897020008DB
:1001A000000000000000000097020008DFF80CD0FB
:1001B00000F06EFA0048004795330008287F0020C1
:1001C0002B4B19680868B0E8F04F80F30988BFF33B
:1001D0006F8F4FF0000080F311887047000000001F
:1001E00006480068006880F3088862B661B6BFF30D
:1001F0004F8FBFF36F8F00DF00BF00BF08ED00E03F
:10020000DFF80C00016841F470010160704700BF25
:1002100088ED00E0EFF30980BFF36F8F144B1A688D
:100220001EF0100F08BF20ED108A20E9F04F10607B
:1002300008B44FF0500080F31188BFF34F8FBFF325
:100240006F8F03F06FFF4FF0000080F3118808BC40
:1002500019680868B0E8F04F1EF0100F08BFB0EC46
:10026000108A80F30988BFF36F8F704700BF00BF0B
:100270004C000020EFF305807047000006488047DF
:1002800006480047FEE7FEE7FEE7FEE7FEE7FEE77B
:10029000FEE7FEE7FEE7FEE7E92C0008AD010008F7
:1002A0002DE9F05F0546002092469B4688460646AB
:1002B000814640241BE0284641464746224600F03E
:1002C000F1F853465A46C01A914110D311461846C8
:1002D000224600F0D8F82D1A67EB01084F46224657
:1002E0000120002100F0CFF817EB00094E41201E3D
:1002F000A4F10104DFDC484631462A464346BDE806
:10030000F09F40EA01039B0703D009E008C9121FD0
:1003100008C0042AFAD203E011F8013B00F8013BBF
:10032000521EF9D27047D2B201E000F8012B491EEB
:10033000FBD270470022F6E710B513460A46044682
:100340001946FFF7F0FF204610BD2DE9F04D81EA78
:10035000030404F0004B21F0004514464FF0000A5E
:1003600023F0004150EA050220D054EA01021DD0DA
:10037000C5F30A570246C5F31303C1F31300C1F3D3
:100380000A5640F4801543F48013A7EB0608101BAF
:10039000D64608F2FD3873EB050002D308F10108D8
:1003A00001E092185B41B8F1000F03DA002001462A
:1003B000BDE8F08D00204FF48011064684460EE023
:1003C000171B73EB050705D3121B63EB05030643ED
:1003D0004CEA010C49084FEA300092185B4150EAA0
:1003E0000107EDD152EA030012D082EA040083EA49
:1003F0000501084305D0101BAB4106D201220023A2
:1004000006E000224FF0004302E06FF001025310BB
:100410001AEB06004CEB085110EB0A0041EB0B0104
:10042000BDE8F04D00F085B800F0004230F000402B
:100430000AD0C10D01F56071C0F3160042EA015106
:10044000C20840071143704700200146704701F081
:10045000004330B421F0004150EA010206D00A0DF9
:10046000A2F56072C1F31301002A02DC30BC002047
:100470007047440F44EAC104C100E01830BC00EBEF
:10048000C25000F01FB8202A04DB203A00FA02F123
:10049000002070479140C2F1200320FA03F3194372
:1004A00090407047202A04DB203A21FA02F0002114
:1004B000704721FA02F3D040C2F120029140084374
:1004C000194670470029A8BF7047401C490008BF63
:1004D00020F00100704710B4B0FA80FC00FA0CF074
:1004E00050EA010404BF10BC704749B1CCF12004AC
:1004F00021FA04F411FA0CF118BF01212143084339
:10050000A3EB0C01CB1D4FEA00614FEA102042BF64
:10051000002010BC704700EBC35010440029A4BF5A
:1005200010BC7047401C490008BF20F0010010BCFF
:10053000704710B5141E73F1000408DA401C41F135
:10054000000192185B411A4301D120F0010010BD57
:100550002DE9F04D92469B4611B1B1FA81F202E0CD
:10056000B0FA80F220329046FFF78DFF04460F4626
:1005700040EA0A0041EA0B0153465A46084313D0A9
:10058000114653EA010019D0C8F140025046FFF766
:1005900089FF05460E46504659464246FFF773FF0F
:1005A000084305D0012004E020463946BDE8F08D1F
:1005B0000020054346EAE0762C4337430A9863055A
:1005C000E40AA0EB08000022FD0A44EA47540A307E
:1005D00002D500200146E9E7010510196941DDE96E
:1005E000084500196941BDE8F04DA2E72DE9F04D3D
:1005F00000231A461B1A8A4103DB00200146BDE88E
:10060000F08DC1F30A52C1F3130141F480154FF08C
:10061000000BD10702D100186D41521E002704467D
:1006200040F2FF11384601EB620A3E468046024620
:1006300000204FF48011FFF735FFC2197141BB183C
:1006400046EB0100B4EB030C75EB000C04D3E41A89
:1006500065EB000517460E46241908F101006D41AF
:1006600080463428E3DDF91946EB0600091BA84152
:1006700003D24FF0FF32134601E0002213461BEB7A
:10068000070046EB0A51BDE8F04DFFF752BF0000EE
:10069000064C074D06E0E06840F0010394E80700CF
:1006A00098471034AC42F6D3FFF784FDFC4B0008AA
:1006B0001C4C0008FEE70000014800F005BB0000EC
:1006C00034020020014800F0FFBA00005C02002064
:1006D00000B50A4802F0FCF90848303002F0F8F999
:1006E0000648603002F0F4F90448903002F0F0F966
:1006F00002485DF804EBC03002F0EAB9DC000020EB
:10070000064A518849BA81611288B1F5004F52BA40
:10071000028002DDA1F58031816170472D0000204B
:1007200010B5A0F20120052824D2DFE800F003086C
:100730000E141A00012001F07FFE0F4816E002207F
:1007400001F07AFE0C48303010E0032001F074FE16
:10075000094860300AE0042001F06EFE064890303F
:1007600004E0042001F068FE0348C030BDE81040FA
:10077000FFF7C6BF10BD0000DC00002010B58AB036
:10078000002104460120CDE9061003910591009156
:1007900001910291049108900E200E4909908C421B
:1007A00000D105906946204600F08AF908B100F0B2
:1007B000BFF8204600F0AAFC08B100F0B9F8022109
:1007C000204600F005F908B100F0B2F80AB00020A8
:1007D00010BD00005C02002030B589B008250695E8
:1007E0000C9CAD0102950025049505950D0A8DF828
:1007F00000508DF80110110A8DF80210190A8DF8B9
:1008000004108DF80530210A8DF806108DF80320AC
:100810008DF8074001236A4602A900F0EDF8002890
:1008200001D000F085F809B030BD00B589B00822CC
:10083000049240F2FF1200920022029203920A0AEE
:100840008DF818208DF81910012306AA694600F0CA
:10085000D3F8002801D000F06BF809B000BD00000B
:10086000014800F087BC0000A0030020014800F010
:1008700081BC000040030020014800F07BBC000068
:100880000004002001681823CAB2103AB2FBF3F248
:10089000054B6FF30901032A9B5CC36500D9091D51
:1008A0008165084670470000B84B000810B5014646
:1008B00000208B698A6A4FF0C07453B1B3F5005FB2
:1008C00015D072B1012A0CD0022A0AD0032A09D10C
:1008D00004E01AB1012A06D0022A03D1C96AC9016B
:1008E00000D5012010BDC96AA142FAD010BD002A6E
:1008F000F7D0012AF2D0022AF3D0032AF3D010BD98
:1009000030B50468256825F4802525600468636097
:100910008368402B036803D099600068C26030BDD3
:100920009A600068C16030BD7047082000F0ACBD1F
:100930007047000030B5224800232349027821483F
:100940000478052C3AD2DFE804F00307101A1E00E1
:100950000D2A09D1012106E00A2A02D00D2A03D06E
:100960002CE043700221017030BD44780A55641CAC
:10097000E1B241701829F7D343700321F3E70A2A43
:100980001CD10421EFE70D2A18D1104A91ED000A7D
:1009900082ED430A91ED010A82ED440A91ED020ACB
:1009A00082ED450A91ED030A82ED410A91ED040AB8
:1009B00082ED420A91ED050A82ED460A037030BDD0
:1009C0002C00002035000020FC010020C400002085
:1009D00090F82020012A09D090F82020022A05D082
:1009E000416A41F4802141620120704700684269F8
:1009F0000A43426100207047F0B590F82040012C76
:100A000007D090F82040022C03D0416A41F48021A5
:100A100053E00468A5686D0105D4A5682D0102D4D2
:100A2000A568ED0046D5A4680125C4F30164A5407E
:100A30001D608D684FF4C0739DB1CE6835434E681C
:100A400045EAC605066803EB0417F5514FF4C27575
:100A5000076805EB04150E697E51097D012905D053
:100A600009E00E88CD6845EA4655EBE701684E5926
:100A700046F480764E511179D2F805504FF4C6767F
:100A800041EA0521056806EB0416A9511178D2F850
:100A900001204FF4C47541EA0221026805EB0415F8
:100AA0005151006803EB0411425842F001024250D8
:100AB0000020F0BD416A41F4001141620120F0BD07
:100AC00010B590F82020012A09D090F82020022AA1
:100AD00005D0416A41F480214162012010BD3A48AD
:100AE000D0F8002242F00102C0F80022D0F8002223
:100AF00022F47C52C0F80022D0F800224B6A42EA6D
:100B00000322C0F800220B7D01229A40D0F81C324B
:100B10009343C0F81C32CB69B3B9D0F80C3293437D
:100B2000C0F80C328C894B6864F31F434C6900EBAE
:100B3000C404C4F840320C890B6864F31F434C6949
:100B400000EBC404C4F84432CB69012B16D1D0F8B1
:100B50000C321343C0F80C320C884B6864F31F430B
:100B60004C6900EBC404C4F840320C89CB6864F3D0
:100B70001F434C6900EBC404C4F844328B69002B5A
:100B8000D0F804320ED01343C0F804320B69002BA6
:100B9000D0F8143208D01343C0F81432096A01297E
:100BA00004D008E09343EFE79343F5E7D0F81C1235
:100BB0001143C0F81C12D0F8001221F00101C0F856
:100BC0000012002010BD000000640040704730B5E6
:100BD00090F82040012C07D090F82040022C03D040
:100BE000416A41F4802109E011B1012909D00CE0EA
:100BF0000468E46807E0416A41F4001141620120A1
:100C000030BD04682469A407F5D04FF4D874056892
:100C100004EB01142D5915F00405956005682D5954
:100C200042D0ED08556005682C59C4F34004D460E7
:100C30004FF4DA74056804EB01142D5905F00F0523
:100C4000156105682D59C5F30725956105682C596F
:100C5000240C54614FF4DC72046802EB0112A458B6
:100C60001C700468A458240A5C700468A458240CFE
:100C70009C700468A258120EDA704FF4DE72046899
:100C800002EB0112A4581C710468A458240A5C7178
:100C90000468A458240C9C710468A258120EDA71DE
:100CA00029B1012909D00DE06D0D1560BBE7006881
:100CB000C16841F02001C16004E00068016941F0B1
:100CC00020010161002030BD2DE9F05F054600687C
:100CD00000244669D0F804908768D0F80CB0D0F8AA
:100CE00010A0D0F81880F10748D0F90714D00121DE
:100CF0008160B80703D5284600F035FA0CE0780784
:100D000002D54FF4006407E0380702D54FF4805451
:100D100002E0284600F026FAF80516D529684FF4B7
:100D200080708860B80503D5284600F01EFA0CE0F4
:100D3000780502D544F4005407E0380502D544F4A0
:100D4000804402E0284600F00FFAF80316D529681F
:100D50004FF480308860B80303D5284600F007FAC6
:100D60000CE0780302D544F4004407E0380302D5D0
:100D700044F4803402E0284600F0F8F9300707D543
:100D80005FEACB6004D52968102044F40074C86081
:100D900070074FF0080707D55FEA0B7004D5286885
:100DA000C760284600F09AF9B00706D52868C068E1
:100DB000800702D0284600F093F9700607D55FEA55
:100DC000CA6004D52968102044F480640861B00624
:100DD00007D55FEA0A7004D528680761284600F045
:100DE00091F9F00606D528680069800702D02846E8
:100DF00000F089F9B00308D55FEAC96005D5296814
:100E000010204860284600F07FF9F00307D55FEA1C
:100E1000097004D528684760284600F0A9F9300415
:100E200046D55FEA497040D5F00504D55FEAC87041
:100E300001D044F00104B00504D55FEA887001D503
:100E400044F00204700504D55FEA487001D544F00F
:100E50000404300529D518F0700F26D008F0700072
:100E6000402815D006DC102809D020280AD03028C8
:100E700016D10AE050280ED0602811D10EE044F0BF
:100E800008040DE044F010040AE044F0200407E0F8
:100E900044F0400404E044F0800401E044F4807431
:100EA0002868816921F07001816129680420486007
:100EB000002C05D0686A204368622846FFF786FE4A
:100EC000BDE8F09F70B5040003D094F8200010B185
:100ED00004E0012070BD204600F082F8206801681F
:100EE00021F00201016000F0CBFB0546052604E07D
:100EF00000F0C6FB401B0A2811D820684068800714
:100F0000F6D42068016841F00101016000F0B8FBEF
:100F100005460BE000F0B4FB401B0A2806D9606AC6
:100F200040F40030606284F82060D2E720684068B6
:100F3000C007EFD0207E0128206801683DD021F055
:100F400080010160607E01282068016838D021F0AE
:100F500040010160A07E01282068016833D021F0A3
:100F600020010160E07E0128206801682ED041F058
:100F700010010160207F01282068016829D021F03C
:100F800008010160607F01282068016824D021F0F9
:100F900004010160D4E902010843D4E904121143B9
:100FA00008436168491E08432168C86100206062E7
:100FB000012084F82000002070BD41F08001C0E7CE
:100FC00041F04001C5E741F02001CAE721F01001DE
:100FD000CFE741F00801D4E741F00401D9E7000070
:100FE000F0B587B0044614216846FFF7A3F9364BE5
:100FF0003648DFF8D0E01968D4F800C0334A03253A
:101000000226092710300024491CF44522D119601A
:10101000012907D1016841F000710160006800F00A
:1010200000700590106840F0080010601068CDE96D
:10103000005600F00800CDE9047069462448CDE967
:10104000024500F02DFA00220521142000F0A2FB39
:10105000142033E0DFF87CE0F44531D1D0F800C053
:101060004CF0806CC0F800C0D0F800C001290CF032
:10107000806CCDF814C0196007D1016841F000718F
:101080000160006800F000700590106840F00200F8
:101090001060106802AB00F0020005904FF4405061
:1010A000CDE9000683E8B00069460B4800F0F8F986
:1010B00000220521402000F06DFB402000F05EFB87
:1010C00007B0F0BD00640040380000203038024016
:1010D000000C02400068004000040240704700001D
:1010E00000B587B0064B6A460021FFF770FD08B1D6
:1010F000FFF71EFC0098FFF713FB07B000BD0000D0
:101100002D000020704770477047000070B50446FE
:1011100090F82000012804D0606A40F4002060624A
:1011200018E0022084F820002068016821F0010105
:10113000016000F0A5FA05460EE000BF00F0A0FA3D
:10114000401B0A2808D9606A40F40030606205201C
:1011500084F82000012070BD20684068C007EDD1F0
:10116000606270BD70477047704770477047704746
:10117000704700002DE9F84304464FF00009CDF810
:10118000009063484FF41651A56D0068B0FBF1F76D
:101190002E6894F85C10082000FA01F131420FD05B
:1011A00021680A6852070BD50A6822F004020A6017
:1011B00094F85C108840A860606D40F001006065A4
:1011C00094F85C104FF0010808FA01F0304208D0A2
:1011D00021684969090604D5A860606D40F00200E5
:1011E000606594F85C1004208840304208D0216883
:1011F0000968890704D5A860606D40F00400606547
:1012000094F85C1010208840304218D0216809689A
:10121000090714D5A86020680168490304D500684F
:10122000000308D5A16C07E00168C90503D4016873
:1012300021F008010160216C09B12046884794F82B
:101240005C1020208840304231D021680968C906EE
:101250002DD5A86094F8350005282068016806D0CF
:10126000490347D5006800031DD4616C1CE021F0E0
:10127000160101602068416921F080014161206C04
:1012800008B9A06C20B12068016821F00801016054
:1012900094F85C103F208840A86084F8349084F86B
:1012A0003580216D1FE0E16B09B120468847606DF4
:1012B00000282BD0606DC00714D0052084F83500BD
:1012C0002068016821F0010101600098401C009035
:1012D000B84203D820680068C007F6D184F834907B
:1012E00084F83580E16C002910D001B02046BDE8BB
:1012F000F04308470168C905D5D4016821F0100101
:10130000016084F8349084F83580CCE7BDE8F88338
:10131000480000202DE9F041044600F0B1F90646EE
:101320005CB1002584F83450022084F83500206830
:10133000016821F0010101600DE00120BDE8F081AC
:1013400000F09EF9801B052805D920206065032048
:1013500084F83500F2E720680068C007F0D1226801
:10136000116820480140D4E901031843D4E9033649
:101370003343184363691843A3691843E369184367
:10138000236A18430843616A042903D1D4E90B1383
:1013900019430843106020684069666A20F007011D
:1013A00030460E43012704280CD1A06A0643E06AA8
:1013B00040B12046FFF77AFA20B14020606584F8FA
:1013C0003570BAE7206846612046FFF75BFA94F86B
:1013D0005C203F2191408160656584F83570002074
:1013E000ACE700003F8010F02DE9F0410446866D27
:1013F00090F83400002501280DD0012084F8340035
:1014000094F835700020012F07D084F834000225AD
:101410002846BDE8F0810220FBE7022784F83570FA
:1014200060652046FFF76CFA94F85C103F20884016
:10143000B0602068016841F01601016020684169D0
:1014400041F080014161206C20B12068016841F0C9
:10145000080101602068016841F001010160D7E7DF
:1014600070B5044600F00CF90546601C02D0044833
:101470000078044400F004F9401BA042FAD370BD88
:101480003C00002070470000044910B50A68024281
:1014900002D00860FFF7F6FF10BD0000143C0140C9
:1014A0002DE9F84FDFF890B100224FF001084FF01E
:1014B000030A4FF00F090BF1040E00BF0B6808FA86
:1014C00002F42340A3426ED14D68022D01D0122DAB
:1014D0000ED1D50800EB850CDCF820505607F70E2E
:1014E00009FA07F6B5430E69BE402E43CCF82060DA
:1014F000066855000F790AFA05FC07F0030726EA8B
:101500000C06AF40374307604E68012E05D0022E0F
:1015100003D0112E01D0122E0ED18768CE6827EA93
:101520000C07AE403E4386604668A6430C79C4F380
:101530000014944034434460C4688E6824EA0C0468
:10154000AE402643C6604C68E4006FD53B4C25682E
:1015500045F480452560246822F0030504F48044A6
:101560000094374C2E19D6F8084895072F0F09FA22
:1015700007F5AC43334DA84201D100252EE0324D92
:10158000A84201D1012529E0304DA84201D1022510
:1015900024E02F4DA84201D103251FE02D4DA84284
:1015A00002D104251AE041E02B4DA84201D10525C6
:1015B00014E02A4DA84201D106250FE0284DA8428B
:1015C00001D107250AE0274DA84201D1082505E0F1
:1015D000254DA84201D1092500E00A25BD4025433B
:1015E000C6F80858DBF800405D464E689C43F60399
:1015F00000D51C432C60DEF8004075464E689C43C5
:10160000B60300D51C432C600B4D08352C684E6882
:101610009C43F60200D51C432C60074D0C352C680A
:101620004E689C43B60200D51C432C60521C102A05
:10163000FFF444AFBDE8F88F003C0140443802405D
:101640000030014000000240000402400008024057
:10165000000C02400010024000140240001802403A
:10166000001C0240002002400024024042694A401F
:10167000426170470AB1816170470904FBE70000CD
:1016800001488068704700003C00002002488168E3
:1016900002781144816070473C0000200B4810B56F
:1016A000016841F400710160016841F480610160EA
:1016B000016841F480710160032000F08BF8002084
:1016C00000F006F800F03EF8002010BD003C02409B
:1016D00010B5014688B00022372000F05BF83720B3
:1016E00000F04CF813480024016841F0200101602B
:1016F000006805A900F020000690684600F014F983
:1017000000F032F90C494000B0FBF1F10C480B4AF3
:10171000491E026040F2E732C0E90324C0E9011427
:1017200000F02CFB10B1012008B010BD044800F0FF
:1017300041FBF9E74038024040420F0000140040EE
:10174000600400200C4882B0016841F480410160CF
:10175000006800F4804000900748001F016841F0D5
:10176000805101600068002200F0805000900F213D
:10177000901E02B000F00EB84438024000F01F0284
:10178000012191404009800000F1E020C0F80011E3
:1017900070470000F0B40E4B1B680C46C3F30223E5
:1017A000C3F10705042D00D90425191D072901D20D
:1017B000002300E0DB1E012606FA05F1491E214048
:1017C00099409E40761E16403143F0BC01F070B93E
:1017D0000CED00E0064900F0070208684FF6FF0331
:1017E000184040EA0220034A104308607047000096
:1017F0000CED00E00000FA052DE9F0470E4605006B
:1018000065D0DFF81481D8F80000F7B200F00F00BF
:10181000B04207D288F80070D8F8000000F00F003E
:10182000B04254D128683D4C810712D5400703D5FA
:10183000206840F4E05020602878000703D5206835
:1018400040F4604020602068A96820F0F000084360
:1018500020602878C0072DD03049686808390128F1
:1018600012D0022813D0032811D009688907002953
:101870002DDA216821F0030101432160FFF700FF09
:10188000814641F2883A0EE009688903EFE709686A
:101890008901ECE7FFF7F4FEA0EB0901514502D9FD
:1018A0000320BDE8F0872068696800F00C00B0EB09
:1018B000810FEFD1D8F80010404601F00F01B1427E
:1018C00007D90770006800F00F00B04201D0012076
:1018D000E7E72878400705D52068E96820F4E0505C
:1018E000084320602878000706D52068296920F47D
:1018F000604040EAC100206000F056F82168084AC4
:10190000C1F30311515CC840064908600020FFF78D
:10191000DFFE0020C5E70000003C0240083802401E
:10192000C04B0008480000200F2202600C4A1368D8
:1019300003F003034360136803F0F003836013684C
:1019400003F4E053C36012684FF4E05303EAD20299
:1019500002610448006800F00F0008607047000052
:1019600008380240003C0240044805490068096804
:10197000044AC1F38221515CC840704748000020EE
:1019800008380240D04B000804480549006809683F
:10199000044AC1F34231515CC840704748000020FE
:1019A00008380240D04B0008154810B5006810F008
:1019B0000C02144813D01449042A0FD0082A0ED15F
:1019C0000F4C241F2268236802F03F025B0207D5F8
:1019D0002068C0F38810A0FB010106E0084610BD96
:1019E0002168C1F38811A1FB00010023FEF758FC18
:1019F0002168C1F30141491C4900B0FBF1F010BD61
:101A0000083802400024F400001BB7002DE9F84F0D
:101A1000050076D02878DFF8F8B2BE4CC00749D070
:101A2000DBF800105846C1F38101012908D0006895
:101A3000C0F3810002280AD1201D0068400206D5AB
:101A40002068800336D568680028E2D032E06868F4
:101A5000B0F5803F10D0B0F5A02F206810D020F452
:101A600080302060206820F4802020606868A0B169
:101A7000FFF706FE06460CE0206840F48030F4E7ED
:101A800040F480202060F7E7FFF7FAFD801B642810
:101A900073D820688003F7D50CE0FFF7F1FD064608
:101AA00005E000BFFFF7ECFD801B6428F0D820683C
:101AB0008003F7D42878DFF8608280074FF00009B0
:101AC0003ED5DBF80010584611F00C0F09D0006825
:101AD000C0F3810002280BD18D48001F006840022E
:101AE00006D42068800715D5E868012809D111E0DF
:101AF000E868B8B10120C8F80000FFF7C1FD06464C
:101B000005E002E1FFF7BCFD801B0228C0D8206879
:101B10008007F7D52068296920F0F80040EAC10065
:101B200020600DE0C8F80090FFF7AAFD064604E02B
:101B3000FFF7A6FD801B02281FD820688007F7D476
:101B40002878000722D5724E744869696C3671B1E5
:101B500001210160FFF794FD074604E0FFF790FDC7
:101B6000C01B022809D830688007F7D50EE0C0F8FE
:101B70000090FFF785FD074605E083E0FFF780FD55
:101B8000C01B02287ED830688007F7D42878400729
:101B900068D5DFF87CA100270AF1380ADAF80000DE
:101BA000C0000BD4DAF8001041F08051CAF80010E0
:101BB000DAF80000012700F080500090584E30689D
:101BC000C00510D4306840F480703060FFF758FDD5
:101BD000009005E0FFF754FD0099401A022851D803
:101BE0003068C005F6D54A4EA868683601280FD07F
:101BF0000528306810D020F001003060306820F0F7
:101C000004003060A868B8B1FFF73AFD00900FE01B
:101C1000306840F00100F4E740F004003060F7E77E
:101C2000FFF72EFD0099411A41F28830814264D8B5
:101C300030688007F4D50EE0FFF722FD009007E042
:101C4000FFF71EFD0099411A41F28830814254D8B5
:101C500030688007F4D42FB1DAF8001021F08051F9
:101C6000CAF80010A869C0B3DBF80010C1F3810105
:101C700002294AD00228484607D0C8F86000FFF77A
:101C8000FFFC00E039E005463AE04746C8F860004E
:101C9000FFF7F6FC064604E0FFF7F2FC801B022883
:101CA0002BD820688001F7D4D5E907010843A96A39
:101CB0001C4A490802EB01416A6A41EA8211084361
:101CC00095F82C1040EA01611148001F01600120C5
:101CD0003866FFF7D5FC054605E014E0FFF7D0FCB9
:101CE000401B022809D820688001F7D50BE000BF0F
:101CF000FFF7C6FC401B022802D90320BDE8F88F7D
:101D000020688001F4D40020F8E70120F6E7000005
:101D1000083802400038024000004742800E474227
:101D2000007000400000FFFF7047704730B590F82A
:101D30003820012A20D0012280F83820022380F8A0
:101D4000393003685C6824F070045C6003685C6888
:101D50000D682C435C6003689C6824F080049C60E0
:101D600003689C6849680C439C6080F83920002116
:101D700080F83810084630BD022030BD10B5040090
:101D800003D094F8390010B107E0012010BD002005
:101D900084F83800204600F00CF8022084F839005E
:101DA000211D206800F0D0FF012084F839000020B8
:101DB00010BD70470168CA6842F00102CA6000683D
:101DC000016841F00101016000207047704770B563
:101DD0000446006801694FF00005C943890715D41E
:101DE000C168C943890711D4E91E01610120207629
:101DF000206880698007204602D0FFF7E7FF04E0F3
:101E000000F0C0F8204600F053F9257620680169FB
:101E1000C943490717D4C168C943490713D46FF0B0
:101E200004010161022020762068806910F4407F5F
:101E3000204602D0FFF7CAFF04E000F0A3F82046D6
:101E400000F036F9257620680169C943090716D4E0
:101E5000C168C943090712D46FF008010161042069
:101E600020762068C0698007204602D0FFF7AEFFC9
:101E700004E000F087F8204600F01AF92576206883
:101E80000169C943C90617D4C168C943C90613D437
:101E90006FF010010161082020762068C06910F4FD
:101EA000407F204602D0FFF791FF04E000F06AF87F
:101EB000204600F0FDF8257620680169C943C9076E
:101EC00008D1C168C943C90704D1891E01612046F0
:101ED00000F0F0F820680169C943090609D4C16817
:101EE000C943090605D46FF0800101612046FFF760
:101EF0001BFF20680169C943490609D4C168C94369
:101F0000490605D46FF040010161204600F0DCF87D
:101F100020680169C94389060BD4C168C943890691
:101F200007D46FF0200101612046BDE87040FFF743
:101F3000FCBE70BD10B586B0044614216846FEF79D
:101F4000F9F92068B0F1804F15D10C4800210268E2
:101F500042F001020260006800F0010005900320D9
:101F600000900220CDE901010120CDE9031069466E
:101F70000348FFF795FA06B010BD00003038024064
:101F800000000240704770B5044690F838000D46D6
:101F900001280DD0012684F83860022084F8390029
:101FA00042B1042A18D0082A2AD00C2A4DD139E08F
:101FB000022070BD206800F027FF2068816941F091
:101FC000080181612068816921F004018161206834
:101FD00081692A69114311E0206800F041FF2068FF
:101FE000816941F4006181612068816921F4806127
:101FF0008161206881692A6941EA0221816124E0C6
:10200000206800F05FFF2068C16941F00801C161EC
:102010002068C16921F00401C1612068C1692A6991
:10202000114311E0206800F07DFF2068C16941F490
:102030000061C1612068C16921F48061C1612068CB
:10204000C1692A6941EA0221C16184F8396000202E
:1020500084F8380070BD10B5040003D094F839003E
:1020600010B107E0012010BD002084F838002046A0
:1020700000F00CF8022084F83900211D206800F0DF
:1020800063FE012084F83900002010BD08B5006807
:10209000B0F1804F08D10548016841F001010160AD
:1020A000006800F00100009008BD000040380240C8
:1020B0007047000000680349884201D1FFF7E6BA83
:1020C00070470000001400407047704770B504006E
:1020D00004D094F83900002510B106E0012070BD4D
:1020E00084F83850204600F023F8242084F8390082
:1020F0002068C16821F40051C160204600F09AFFB9
:102100002068016921F4904101612068416921F052
:102110002A0141612068C16841F40051C160E56352
:10212000202084F8390084F83A00002070BD0000B7
:102130002DE9F04786B0064614216846FEF7FAF806
:102140004F48DFF838C133684D491438022501275C
:10215000032200244FF4806A63453DD10B6843F0AD
:1021600010030B60096801F010010591016841F04E
:1021700002010160016801F002010591016841F06E
:10218000010101600068904600F001000590802088
:102190004FF007098DE8A10369463A48FFF780F937
:1021A00028028DE8A10369463748FFF779F9384DD1
:1021B00036482860F806C5E90104C5E9034A6C61A0
:1021C000AC61EC612C6228466C62FFF7A3F808B1A1
:1021D000FEF7AEFB75634DE0DFF8B8C063454AD14A
:1021E0000B6843F020030B60096801F020010591A2
:1021F000016841F0400101600068694600F040005C
:1022000005904FF484408DE8A1000820CDE903201B
:102210002148FFF745F91E4D1C48603518382860E5
:102220004FF02068C5E90184C5E9034A6C61AC61DF
:10223000EC612C62574628466C62FFF76BF808B1D8
:10224000FEF776FB7563AE63114D1048C035603004
:10225000E5E80208402091C50D4845F81449C03012
:10226000AC61EC612C626C62FFF754F808B1FEF7C8
:102270005FFB3563AE6306B0BDE8F0870010014038
:102280004438024000040240000002404064024022
:10229000400300200014014000180240F8B5044635
:1022A00090F83A0020283CD1C1B3BAB394F8380072
:1022B000012836D0012084F83800A162A2850025CB
:1022C000E563222084F83A00636B1748D863636B98
:1022D00016481864636B1648D864606B134605652E
:1022E0000846666B216802463046091DFFF77CF8F8
:1022F000206801684168009184F83850C16841F451
:102300008071C1602068416941F00101416120682C
:10231000416941F0400141610020F8BDFFE7012023
:10232000FBE70220F9E70000BF2F0008FB2F0008A1
:10233000752F00080C4910B5884208D112220B49AC
:102340000948FFF7ABFFBDE8104000F0FDBB0849AE
:10235000884208D1012207490548FFF79FFFBDE8E1
:102360001040FEF7E7BA10BDC0020020E8010020CF
:10237000000300202C0000207047FEE70122D1025C
:102380000C48FFF777F9012291030B48FFF772F928
:102390000A4C207C012806D0032807D00528F8D154
:1023A00000F00EF8F5E700F01FF8F2E700F032F861
:1023B000EFE700000010024000140240C4000020BB
:1023C00010B50122D1020648FFF754F94FF48041BD
:1023D0000448FFF74BF9BDE810406420FFF740B810
:1023E000001002400014024010B50122D10207483B
:1023F000FFF740F94FF480410548FFF737F9BDE892
:1024000010404FF4FA70FFF72BB8000000100240A4
:102410000014024010B500224FF400610448FFF799
:1024200029F90122BDE8104091030248FFF722B9C3
:102430000010024000140240024A002142F820101D
:10244000704700002002002000F0A8FB0D4C052082
:10245000C4F82001207C012808D0032803D00428D8
:102460000AD0052805D000F00FF907E000F004F9C4
:1024700004E000F05FF801E000F00EF9012000F048
:10248000C3FFE7E7C4000020012000F0BDFFFBE729
:102490002649274891F90830032B07D00A46012B1B
:1024A00092F9092004D0022B0FD014E003213AE066
:1024B000012A04D0022A06D0032A0CD101E000210F
:1024C00031E001222CE002212DE0012A25D0022A50
:1024D00028D0032A23D0027C012A03D0052A01D068
:1024E000042A19D1B1F90230D0F82021A3F5806374
:1024F00053430360B1F90030A3F580635343436055
:10250000B1F90430A3F5806353438360B1F9061039
:10251000A1F580615143C1607047042200E00522AB
:102520000274DFE7062101747047000014020020E6
:10253000C400002030B540222DED048B91B06846D8
:102540004649FDF7DEFE9FED469BB0EE490AF0EEF0
:10255000690A00F0C6FE444DB0EE408AF0EE608A93
:1025600095ED410AD5ED420A30EE600A10EE100AF0
:10257000FDF75AFF53EC182BFDF7E7FEFDF767FF59
:102580003A4CB0EE490AF0EE690A206000F0A9FE6C
:10259000B0EE408AF0EE608A95ED410AD5ED420A30
:1025A00030EE200A10EE100AFDF73EFF53EC182B18
:1025B000FDF7CBFEFDF74BFF00EE100A84ED010A9C
:1025C000606907283FDC694601EBC000D0ED010AD5
:1025D00030EEC00A84ED030AD0ED000A94ED001A33
:1025E00020EE000A70EEC10AC4ED020A00EEA00A55
:1025F00010EE100AFDF718FF41EC100B00F071FE11
:1026000051EC100BFDF723FF00EE100A184910EEF5
:10261000100A84ED040A884219DDD4ED030A80EE25
:10262000801ADFED140A21EE201ABDEEC11A85EDE5
:10263000001A94ED021AC1EE001A21EEA00ABDEEB6
:10264000C00A85ED010A11B0BDEC048B30BD606994
:10265000401C6061002028606860F4E7784B000847
:102660000000000000000040C40000201400002012
:102670000000484300007A4502490A20C1F82001C1
:1026800070470000C40000200248002181604160C2
:1026900001607047C40000200B4810B5C168B1F557
:1026A0007A7F02DD4FF4FA7105E011F57A7F01DAE5
:1026B000064900E00021C0F8F410FEF709F8BDE873
:1026C000104000F08DBA0000C40000200CFEFFFF97
:1026D0000F4810B50D4901600321416000214FF4FE
:1026E00000228160C0E903124FF44012426101767A
:1026F00041768176C17601774177FEF7E3FB0028CA
:1027000003D0BDE81040FEF713B910BD00640040CF
:10271000340200200F4810B50D49016003214160CB
:1027200000214FF400228160C0E903124FF44012EF
:102730004261017641768176C17601774177FEF775
:10274000C1FB002803D0BDE81040FEF7F1B810BD72
:10275000006800405C020020114808B5016841F49F
:10276000800101600068002200F4800000900521D3
:102770003920FFF70FF83920FFF700F80022052174
:102780003A20FFF707F83A20FEF7F8FF002205216C
:102790004520FEF7FFFFBDE808404520FEF7EEBFED
:1027A0003038024010B592B000200F9001210FA8E0
:1027B00000F036FE184C0022012120611748006805
:1027C000109010A800F056FE0221E06000F064FEB8
:1027D00012491422091D6846FDF793FD0021684641
:1027E00000F031FE0D4920601422183105A8FDF7D4
:1027F00088FD002105A800F026FE0849606014222B
:102800002C310AA8FDF77DFD00210AA800F01BFE6F
:10281000A06012B010BD000000000020384B00087E
:102820002DE9F04F87B014216846FDF783FD594824
:102830000024016841F010010160016801F01001FD
:102840000591016841F040010160016801F040011B
:102850000591016841F002010160016801F0020187
:102860000591016841F001010160016801F0010179
:102870000591016841F008010160016801F008015B
:102880000591016841F480710160016801F4807173
:102890000591016841F080010160016801F080014B
:1028A0000591016841F0200101600068DFF8E8B09F
:1028B00000F020000590002240F601015846FEF786
:1028C000D9FE4FF4FF79002249463448FEF7D2FE84
:1028D0004FF4804A002251463148FEF7CBFE0125D5
:1028E0000226CDE902560095694658460195FEF745
:1028F000D7FD08272B480097CDE9010469462A48EF
:10290000FEF7CEFD60200090CDE901644FF0030892
:10291000CDE9034869462548FEF7C2FDCDF8009091
:10292000CDE9015469461D480394FEF7B9FD28031B
:102930000090CDE90164CDE9034669461C48FEF7E5
:10294000AFFD4FF4C070CDE90006CDE902486946FD
:1029500004975846FEF7A4FDE8020090CDE9015423
:10296000694658460394FEF79BFDCDF800A0CDE9DB
:10297000015469460A480394FEF792FD002205219E
:102980000920FEF707FF0920FEF7F8FE07B0BDE8B3
:10299000F08F000030380240001002400018024062
:1029A0000014024000001110000402400020024008
:1029B000000C024010B58AB0002407941C21684620
:1029C0000894FDF7B7FC1A484FF08041016054218C
:1029D000C0E9011444F61F61C0E90314FFF73BFB93
:1029E00008B1FDF7A5FF079407A911480894FFF760
:1029F0009DF908B1FDF79CFF602000904FF47A70BC
:102A0000CDE901040022694609480494FFF7BBFAA6
:102A100008B1FDF78DFF042269460548FFF7B3FAB8
:102A200008B1FDF785FF0248FFF784FA0AB010BD30
:102A3000840200200D4810B50B4901600C4941602B
:102A400000214FF480628160C0E903120C22C0E9CA
:102A50000521C161FFF73AFB002803D0BDE8104013
:102A6000FDF766BF10BD000000100140C00200204D
:102A7000A08601000C4810B50A4901604FF4E1310D
:102A80004160002181600C22C160C0E904128161B3
:102A9000C161FFF71BFB002803D0BDE81040FDF724
:102AA00047BF10BD0014014000030020FEE770473F
:102AB0000907090E002806DA00F00F0000F1E020F7
:102AC00080F8141D704700F1E02080F80014704772
:102AD00010B5D0E90621891A01624269D0ED010AD8
:102AE0008B1A00EE103A90ED021A0369B8EEC00A94
:102AF0000B44544203EB440360EE200A00EE101A2C
:102B0000B8EEC00A41EE000A00EE103A90ED031A4A
:102B1000B8EEC00A41EE000A90ED090AB8EEC00A0C
:102B200030EE800ABDEEC00A10EE103A4362C0E9F2
:102B30000421816A8B4200DD4162426A49428A4235
:102B400000DA416210BD000012490888C0F30A0291
:102B5000114802804A78D3088A7843EA4213C3F3C3
:102B60000A034380CB78920942EA83030A7943EA55
:102B70008223C3F30A0383804979520842EAC112CF
:102B8000C2F30A02C2808A090272C1F301114172C2
:102B9000FFF77EBCE80100201402002010B54FF4BE
:102BA00092710E48FDF7C6FB0C4A0020F2EE0E0AA9
:102BB000B7EE000A40F6AC5300EB400102EB011106
:102BC000401CC1ED070A81ED080A81ED090A0B647A
:102BD0000528F1DB0320107410BD0000C4000020A4
:102BE00038B5124C207C032816D0B4F8CC0000B2C3
:102BF0000090B4F89C0003B2B4F86C0002B2A08F4D
:102C000001B20B48FDF7E8FDB4F8FC00BDE8384020
:102C100001B20748FDF709BE0020034602460146FF
:102C200000900348FDF7D8FD38BD0000C400002027
:102C3000340200207047000010B5502080F3118846
:102C4000BFF34F8FBFF36F8F01F0ACFD18B1044994
:102C50004FF080500860002080F3118810BD000004
:102C600004ED00E030B593B030216846FDF762FB1B
:102C700014210CA8FDF75EFB19480025016841F0FE
:102C800080510160006800F0805011901548016883
:102C900041F4404101600068022400F4404011907A
:102CA00001200090000401908001CDE9064006203B
:102CB0000890A820CDE9090404200B906846FEF78F
:102CC000A5FE0CA90F2081E831004FF4A0500F9011
:102CD000E002109005210CA8FEF78EFD13B030BD68
:102CE00040380240007000401048016841F4700113
:102CF00001600F48016841F0010101600C4A0021A8
:102D00000832116002680B4B1A400260031D0A4A28
:102D10001A60026822F48022026005480C300160CB
:102D200002495806803908607047000088ED00E0CD
:102D300000380240FFFFF6FE103000240148FFF784
:102D400046B8000060040020F0B50268234B244D13
:102D5000244E254F254C4FF0804C984209D06045B9
:102D600007D0A84205D0B04203D0B84201D0A0425B
:102D700004D122F0700E4A6842EA0E0298421BD03B
:102D8000604519D0A84217D0B04215D0B84213D030
:102D9000A04211D0164DA8420ED0164DA8420BD01D
:102DA000154DA84208D0154DA84205D0144DA84293
:102DB00002D0144DA84203D122F44075CA682A43B8
:102DC00002608A68C2620A688262984201D0A042A8
:102DD00001D10969016301214161F0BD0000014099
:102DE0000004004000080040000C004000040140C6
:102DF00000400140004401400048014000180040EC
:102E0000001C00400020004030B5026A22F00102A0
:102E10000262026A436884690D6824F073042543E2
:102E200022F002048A6822430B4CA04202D00B4CD1
:102E3000A0420BD122F00804CA6823F44073224355
:102E40004C6922F004021C438B6923434360856173
:102E500049684163026230BD000001400004014046
:102E600030B5026A22F010020262026A4368846985
:102E70000D6824F4E64444EA05248D6822F020021B
:102E800042EA05120D4DA84202D00D4DA8420ED1C6
:102E9000CD6822F0800242EA05124D6923F44063B6
:102EA00043EA85038D6922F0400243EA85034360CB
:102EB000846149688163026230BD00000000014006
:102EC0000004014030B5026A22F480720262036A93
:102ED0004268C46923F4007324F073050C682C4322
:102EE0008D6843EA05230D4DA84202D00C4DA8423F
:102EF0000ED1CD6823F4006343EA05234D6922F423
:102F0000405242EA05128D6923F4806342EA0512B9
:102F10004260C4614968C163036230BD0000014082
:102F20000004014030B5026A22F480520262046A51
:102F30004268C3690D6823F4E64343EA05238D68BC
:102F400024F4005444EA0534084DA84202D0084D48
:102F5000A84204D14D6922F4804242EA85124260BF
:102F6000C36149680164046230BD00000000014093
:102F70000004014070B5846B2068406994F83910F2
:102F8000C0F3C0100025212904D118B1E5842046E2
:102F900000F046F82068406994F83A10C0F38010B9
:102FA000222904D118B1E585204600F02BF8E06B0A
:102FB00040F01000E0632046FFF787F870BD10B5C1
:102FC0000146806B09680968C90513D40021C185D1
:102FD0000168CA6822F48072CA6001684A6922F0F6
:102FE00001024A6101684A6922F040024A612021D7
:102FF00080F83A10FFF79EF910BD10B5806BFFF70F
:10300000BBF910BD0168CA6822F49072CA600168F9
:103010004A6922F001024A61202180F83A10704783
:103020000168CA6822F0C002CA60202180F8391005
:10303000704700002DE9F04104460068016921F461
:103040004052E168114301612168C86849F20C628D
:1030500090432369A268E5691A4363692B431A43C5
:103060000243CA602168486920F44072A069104395
:103070004861E1696425B1F5004F9748974A216896
:103080004FF032083FD0914201D081427CD1FEF70F
:103090007BFC00EBC00101EB001061688900B0FB14
:1030A000F1F6FEF771FC00EBC00101EB0010616866
:1030B0008900B0FBF1F0B0FBF5F06FF01801484368
:1030C00006EB800108EB0110B0FBF5F000F0F00614
:1030D000FEF75AFC00EBC00101EB001061688900AB
:1030E000B0FBF1F0B0FBF5F006EB0016FEF74CFC80
:1030F00000EBC00101EB001061688900B0FBF1F743
:10310000FEF742FCD2E0914201D081423DD1FEF770
:103110003BFC00EBC00101EB001061684900B0FB13
:10312000F1F0B0FBF5F00601FEF72EFC00EBC0015C
:1031300001EB001061684900B0FBF1F7FEF724FCD9
:1031400000EBC00101EB001061684900B0FBF1F039
:10315000B0FBF5F06FF01801484307EB800108EB76
:10316000C100B0FBF5F000F0F80006EB4006FEF7FA
:103170000BFC00EBC00101EB001061684900B0FBE3
:10318000F1F7FEF701FC3CE055E0FEF7EDFB00EB4C
:10319000C00101EB001061684900B0FBF1F0B0FB29
:1031A000F5F00601FEF7E0FB00EBC00101EB0010BB
:1031B00061684900B0FBF1F7FEF7D6FB00EBC001F8
:1031C00001EB001061684900B0FBF1F0B0FBF5F0D5
:1031D0006FF01801484307EB800108EBC100B0FB1A
:1031E000F5F000F0F80006EB4006FEF7BDFB00EB43
:1031F000C00101EB001061684900B0FBF1F7FEF778
:10320000B3FB00EBC00101EB001061684900B0FBAB
:10321000F1F0B0FBF5F06FF01801484307EB8001C7
:1032200008EBC100B0FBF5F000F007002168304466
:103230008860BDE8F081FEF797FB00EBC00101EB71
:10324000001061688900B0FBF1F6FEF78DFB00EB22
:10325000C00101EB001061688900B0FBF1F0B0FB28
:10326000F5F06FF01801484306EB800108EB011000
:10327000B0FBF5F000F0F006FEF776FB00EBC001C6
:1032800001EB001061688900B0FBF1F0B0FBF5F0D4
:1032900006EB0016FEF768FB00EBC00101EB001027
:1032A00061688900B0FBF1F7FEF75EFB00EBC0013F
:1032B00001EB001061688900B0FBF1F0B0FBF5F0A4
:1032C0006FF01801484307EB800108EB0110B0FBD9
:1032D000F5F000F00F00A9E70014014000100140D4
:1032E000FEE700B52DED048BB0EE409AF0EE609A4B
:1032F00083B051EC190BFDF779F941EC180B18EE7E
:10330000100A18EE901A8DED008B002818BF0120CE
:10331000084320F00040C0F17F6000F1E040C00FA2
:1033200014D019EE101A19EE900A8DED009B0029A9
:1033300018BF0121084320F00040C0F17F6000F178
:10334000E040C00F04BF012000F018F8B0EE480ABA
:1033500003B0F0EE680ABDEC048B00BD02E008C8C3
:10336000121F08C1002AFAD170477047002001E0FF
:1033700001C1121F002AFBD17047000001490860FB
:1033800070470000C0000020EFF30580002800D047
:1033900001207047FEF782F9FFF764FCFFF740FA5F
:1033A000FFF7DAF9FFF794F9FFF7B4F9FFF742FBFB
:1033B000FFF760FBFFF7FEFA01220A490A48FEF711
:1033C0006DFF122209490A48FEF768FF0948FDF718
:1033D000D5F90948FDF7D2F9FFF7E4F900F01BF839
:1033E000FEE700002C00002000030020E801002080
:1033F000C0020020340200205C02002001460020B0
:10340000842900D0C81C704710B500B9012000F015
:1034100095FD002010BD10B500F044FE002010BD49
:1034200010B5012901D0002010BD03220021012088
:1034300000F016FF040004D000231A46194601F0DC
:103440002DF8204610BD3EB504460D46B0F90800E3
:10345000FFF7D4FF02A9CDE90001208A2B4682B2F2
:10346000D4E9001001F05EF9012801D000203EBD32
:1034700002983EBD08B500680090012907D00020E1
:1034800013460246012103A001F0D8FA08BD01202D
:10349000F6E70000000000002DE9FC41002507468A
:1034A0002E4601950C0000D10124FFF76DFF009618
:1034B00090B101AB22460921384601F00DFB0128ED
:1034C00012D1019888B10A494FF080500860BFF3CB
:1034D0004F8FBFF36F8F08E0002322460421384648
:1034E00001F0FAFA012800D0FF252846BDE8FC814A
:1034F00004ED00E02DE9F041184C0F460546E66862
:103500002068001D00F004FC38B9206890F82C10E9
:1035100001208840216981432161681C07D137B1AE
:103520002168BDE8F0410E48091D00F029BC206863
:103530003544B5424560216805D2A06BBDE8F04135
:10354000091D00F005BC606B091D00F001FCA06ABC
:10355000854200D2A562BDE8F08100004C00002049
:10356000B80500202DE9F041054600F015FC2E4C71
:10357000A068401CA06020682C4F10B1606940B367
:103580002DE02560A068012829D1002606EB8600E1
:1035900007EB800000F0CEFB761C072EF6D3234805
:1035A0008C3000F0C7FB2148A03000F0C3FB1F485F
:1035B000B43000F0BFFB1D48C83000F0BBFB1B4817
:1035C000DC3000F0B7FB19488C3060631430A06326
:1035D00005E02068E96AC06A884200D82560606A10
:1035E000401C6062E96A0120226988401043206122
:1035F00001EB810007EB8000291D00F0C1FB00F00A
:10360000EBFB606900280CD02068E96AC06A884238
:1036100007D207494FF080500860BFF34F8FBFF3C8
:103620006F8FBDE8F08100004C000020DC0400201A
:1036300004ED00E010B500F0AFFB0E4C2068A0B91F
:103640000D4800F077FB0C48143000F073FB0A487B
:10365000E0601430206100220C210A2000F000FEFE
:10366000206010B105A100F033FCBDE8104000F06F
:10367000B3BB000088000020CC050020546D7251BF
:103680000000000070B5114E114C17E000F042FD33
:103690003068B8B101F070F900F07EFBF068C568E1
:1036A000281D00F035FBA068401EA0606068401E29
:1036B000606000F091FB284600F055F86068002833
:1036C000E4D170BD01F058F9F8E70000A40500202E
:1036D0004C00002030B4026C0B46002A0BD0C168AD
:1036E0001144C1604468A14201D30168C16030BC8B
:1036F0001846FCF706BE30BC70472DE9F041856BDB
:10370000174604460026026C82B1C7B1E068FCF798
:10371000F8FDE168206C091AE1602268914202D24A
:103720006168081AE060022F16D017E02068A8B977
:10373000606801F09BF80646002060600EE0A0681B
:10374000FCF7DFFD216CA0680844A0606168884236
:1037500004D32068A06001E005B16D1E6D1CA56357
:103760003046BDE8F08110B50446006B00F048FB20
:103770002046BDE8104000F043BB00000F4847F270
:103780003051420705D0C01D0C4A20F00700821AB4
:10379000891A0B4A00230144C2E900030839103A90
:1037A00021F0070111604B600B600B1AC0E9001398
:1037B00093604FF000405360D0607047F4050020E4
:1037C000AC000020074C4FF08056074DFFF75AFF22
:1037D00020680128FAD92E60BFF34F8FBFF36F8F97
:1037E000F4E70000DC04002004ED00E02DE9F047E0
:1037F0009A46DDE9098481466FF00303206B03EBF1
:1038000082021044089D20F00706700707D0502060
:1038100080F31188BFF34F8FBFF36F8FFEE723183C
:103820000A5C83F834200A5C12B1401C1028F6D3DD
:10383000002784F84370072D00D30625E562C4E90C
:103840001157201D00F081FA04F1180000F07DFAF4
:103850002461C5F107006462A061E76484F85070D8
:1038600052464946304600F03DFA2060B8F1000F5C
:1038700001D0C8F80040BDE8F087000030B511491C
:1038800000E011460A688242FBD34B685C18844210
:1038900003D1406818444860084643681C189442A5
:1038A00009D1084C103C2468A24209D052681A443D
:1038B00042600A6812680260814200D0086030BD30
:1038C0000460F9E7AC00002070B5002441600B4DA6
:1038D0000061914206D8D11A8269914206D2011D37
:1038E000286907E09A4203D2994201D3012403E0F8
:1038F000011DE86800F02CFA204670BD8800002009
:1039000010B5044600F048FAA06B28B15FF000043F
:1039100000F062FA204610BD0124F9E730B587B007
:103920002B4D4BE00498002848DB069C606910B1E1
:10393000201D00F0EDF902A800F0B6F80246049848
:103940000A283BD2DFE800F00505053A26370505D1
:103950003A260598A169034601442046FFF7B4FFC3
:1039600000B3616A20468847E069012826D100201B
:1039700000900598A169002342181946204601F0DD
:10398000ABF878B9502080F31188BFF34F8FBFF3A5
:103990006F8FFEE70598A06128B181181346204675
:1039A000FFF792FF0AE0502080F31188BFF34F8F9A
:1039B000BFF36F8FFEE7204600F022FA00231A467D
:1039C00004A9286800F070FC0028ABD107B030BD16
:1039D000880000202DE9FC410F46054600F09AFBC7
:1039E00001A800F061F80446019818B100F0C4FF86
:1039F000BDE8FC81224EAFB130690068A8B3002752
:103A0000291B3A46306800F077FA00F0B5FF00282D
:103A1000EED11C494FF080500860BFF34F8FBFF3C9
:103A20006F8FE5E7A542EBD800F0A6FFF0682746C8
:103A3000C068C468201D00F06BF9E069012810D14E
:103A4000A0692B4641193A462046FFF73DFF40B199
:103A500000200346014600902A46204601F03CF82B
:103A600020B1616A20468847C2E707E0502080F312
:103A70001188BFF34F8FBFF36F8FFEE70127BFE7BA
:103A80008800002004ED00E00648416B096829B178
:103A9000416BC968C9684968816270474FF0FF315E
:103AA000FAE700004C00002070B5054600F074FEF7
:103AB000064E0446B068844203D200F009F80120A3
:103AC00000E0002028602046B46070BD880000201F
:103AD000F8B5194D1FE0C068C4680668201D00F0E5
:103AE00017F9616A20468847E069012813D1A06967
:103AF0003044B04206D924616060211DE86800F0BE
:103B000027F908E00020034601460090324620468F
:103B100000F0E2FF38B1E86801680029DBD12969CB
:103B2000C5E90310F8BD502080F31188BFF34F8F13
:103B3000BFF36F8FFEE70000880000200848406850
:103B4000401C4FF0500080F3118804D0BFF34F8F1A
:103B5000BFF36F8FFEE7BFF34F8FBFF36F8FFEE7AB
:103B6000B4000020074CE068016841B1C068002142
:103B7000D0F80000FFF72EFFFFF7D0FEF3E701219A
:103B80000020F7E7880000202DE9F041044600F00E
:103B900003F994F9455004F1240609E0606A48B13C
:103BA000304600F0AFFE08B100F0EEF96D1E6DB2C8
:103BB000002DF3DC4FF0FF3684F8456000F00CF97F
:103BC00000F0EAF894F9445004F1100709E0206984
:103BD00048B1384600F096FE08B100F0D5F96D1EE8
:103BE0006DB2002DF3DC84F84460BDE8F04100F0D4
:103BF000F3B800002DE9F0410546002700F08AFAED
:103C0000314E306808B9FFF7B9FDF06805424BD175
:103C1000C5B3083568070ED005F00700C0F10800ED
:103C20000544680707D0502080F31188BFF34F8FF9
:103C3000BFF36F8FFEE72DB37068854234D82248FA
:103C4000103001460C6801E020460C466168A9422C
:103C500002D221680029F7D131688C4224D007684C
:103C60002168016060680837411B10290FD960196D
:103C7000420708D0502080F31188BFF34F8FBFF365
:103C80006F8FFEE710E041606560FFF7F7FD616848
:103C90007068401A7060B268904200D2B060F068FC
:103CA00001430020C4E9000100F066FE780707D058
:103CB000502080F31188BFF34F8FBFF36F8FFEE763
:103CC0003846BDE8F08100009C00002004490868E7
:103CD00018B10868826C521C826408687047000042
:103CE0004C00002010B5031F4FF080741C601B1F98
:103CF00021F001011960191F044B0B6014390A608F
:103D0000091F6FF0020244380A6010BD3D3B0008F5
:103D1000D0E9013201699A60D0E901235A604A680A
:103D2000824201D182684A60002202610868401E16
:103D30000860704700F108014FF0FF32C0E901123E
:103D4000C16001610021016070470021016170477D
:103D500030B50B685A1C02D000F1080202E002697B
:103D600004E02246546825689D42FAD953684B60A6
:103D700099608A60516008610168491C016030BD2A
:103D800042684A6093688B609368596091600861EB
:103D90000168491C01607047502080F31188BFF30F
:103DA0004F8FBFF36F8F0A494868401C4860012855
:103DB0000CD10848006810F0FF0F07D0502080F3A6
:103DC0001188BFF34F8FBFF36F8FFEE7704700007E
:103DD000B400002004ED00E00849486828B1401E06
:103DE000486001D180F311887047502080F311881A
:103DF000BFF34F8FBFF36F8FFEE70000B4000020CA
:103E000070B5002827D0144DA0F108046168E86857
:103E1000014207D1502080F31188BFF34F8FBFF3C9
:103E20006F8FFEE722683AB1502080F31188BFF30C
:103E30004F8FBFF36F8FFEE78143616000F06AF937
:103E400060686968084468602046FFF717FDBDE8B0
:103E5000704000F091BD70BD9C00002006484FF4FA
:103E60007A710068B0FBF1F14FF0E020491E41612A
:103E700007210161704700004800002010B5FCF7E1
:103E8000F9F9114910280ED300F1E02090F8F00361
:103E90000A78904207D2502080F31188BFF34F8FE9
:103EA000BFF36F8FFEE709480068896800F4E0609F
:103EB000884207D9502080F31188BFF34F8FBFF39A
:103EC0006F8FFEE710BD0000B40000200CED00E095
:103ED00010B5084B002200BF53F832401CB1521CF1
:103EE000082AF9D310BD43F8321003EBC201486031
:103EF00010BD00009C04002070B515460E46044617
:103F0000FFF74AFF94F944100020491C01D184F8BE
:103F1000440094F94510491C01D184F84500FFF78D
:103F20005BFFA06B28B92A46314604F1240000F05B
:103F300049F82046BDE87040FFF726BE10B50200E4
:103F400014D00F48006B38B1502080F31188BFF3B4
:103F50004F8FBFF36F8FFEE700F0DCF800211046B3
:103F6000FFF7C8FA00F008FD002807D105494FF017
:103F700080500860BFF34F8FBFF36F8F10BD0000FC
:103F80004C00002004ED00E001490120C8617047A9
:103F90004C00002010B50C4650B109490968183191
:103FA000FFF7D6FE2046BDE810400121FFF7A2BA78
:103FB000502080F31188BFF34F8FBFF36F8FFEE760
:103FC0004C00002070B514460D4668B10A490968D6
:103FD0001831FFF7D5FE0CB14FF0FF3521462846CA
:103FE000BDE87040FFF786BA502080F31188BFF318
:103FF0004F8FBFF36F8FFEE74C00002070B50400B9
:1040000039D01D4DE06A2968C96A884233D2A06957
:10401000002804DB2868C06AC0F10700A061E16ADB
:10402000164E01EB8101606906EB810188421FD1C8
:10403000201DFFF76DFE012150B9E06A00EB800200
:1040400056F8222022B92A6901FA00F082432A6137
:104050002868C06AE0622A6981401143296100EB47
:10406000800006EB8000211DBDE87040FFF788BE90
:104070002868C06AE06270BD4C000020DC040020AB
:1040800028B107490A6A0260C96841607047502038
:1040900080F31188BFF34F8FBFF36F8FFEE70000EF
:1040A0004C0000201CB517480024CDE900402346F1
:1040B000802215A1164800F035FB012803D100F03D
:1040C000E5FC012809D0401C1AD1502080F311884A
:1040D000BFF34F8FBFF36F8FFEE7502080F311883F
:1040E000BFF34F8FBFF36F8F06484FF0FF312C386F
:1040F000816201214161C460BDE81C4000F040B80C
:104100001CBD00007800002049444C450000000020
:10411000C53700080248016B491C01637047000065
:104120004C0000201448016B11B10121C16170479E
:104130000021C1610169B1FA81F1C1F11F0101EBF7
:1041400081020E4951F822306BB101EB820101F17D
:1041500008034A6852684A609A4201D152684A602C
:10416000D16801607047502080F31188BFF34F8FF2
:10417000BFF36F8FFEE700004C000020DC0400203E
:104180001CB532480168324A914207D1502080F371
:104190001188BFF34F8FBFF36F8FFEE700682C4984
:1041A000491E884207D1502080F31188BFF34F8FFA
:1041B000BFF36F8FFEE7274908780190FF20087052
:1041C00008788DF800009DF800009DF8002000F0B0
:1041D000F000904207D0502080F31188BFF34F8F3A
:1041E000BFF36F8FFEE79DF800001B4A00F0500000
:1041F00010700720906005E09DF800305B008DF89E
:104200000030401E9DF800301B06F5D4000200F47B
:10421000E0609060019808700C482030016841F41B
:1042200070010160016841F070410160FFF716FE06
:1042300000205060FBF7E4FF0848016841F040416E
:104240000160FBF7CDFF00201CBD000000ED00E089
:1042500071C20F4100E400E0B400002034EF00E040
:1042600070B50E46050013D0D6B105FB06F04830F8
:10427000FFF7C0FC040009D004F1480120468EB1CC
:104280000160C0E90F56012100F0C4F8204670BD5E
:10429000502080F31188BFF34F8FBFF36F8FFEE77D
:1042A0000020E4E70060ECE72DE9FF4F002683B033
:1042B0009B468A46040003D0BAF1000F08D011E0F3
:1042C000502080F31188BFF34F8FBFF36F8FFEE74D
:1042D000206C38B1502080F31188BFF34F8FBFF3AB
:1042E0006F8FFEE700F04AFADFF824814FF00009F3
:1042F0004FF0805748B9059838B1502080F31188A5
:10430000BFF34F8FBFF36F8FFEE7FFF745FDA56B40
:1043100045B351462046E668FFF7DCF9BBF1000FD4
:1043200013D0E660606A50B104F1240000F0EAFAAC
:1043300028B1C8F80070BFF34F8FBFF36F8FFFF73E
:104340004BFD012007B0BDE8F08F6D1EA56320680E
:1043500010B9FFF7BBFC606020690028EFD004F1C2
:104360001000E3E7059808B11EB106E0FFF734FD41
:1043700027E06846FFF784FE0126FFF72DFDFFF7D3
:10438000C9FEFFF709FD94F94400401C01D184F8EF
:10439000449094F94500401C01D184F84590FFF702
:1043A0001BFD05A9684600F087F9002820460AD0C1
:1043B000FFF7EAFB00F0E0FA2046FFF7A1FA002839
:1043C000A3D00020BEE7FFF79BFAD8B1206830B930
:1043D000FFF7E2FC6068FFF711FEFFF7FDFC04F158
:1043E00024000599FFF7D6FD2046FFF7CDFB00F02E
:1043F000C3FA002889D1C8F80070BFF34F8FBFF30C
:104400006F8F82E72046FFF7BFFB00F0B5FA7CE72D
:1044100004ED00E070B50D46040025D0FFF7BCFCAC
:10442000D4E90F20216802FB001161600021A16323
:104430002168A1600A46D4E90F01401E00FB01215A
:10444000E16021464FF0FF3001F8440F487004F15D
:1044500010008DB1FFF76EFC04F12400FFF76AFC39
:10446000FFF7BAFC012070BD502080F31188BFF324
:104470004F8FBFF36F8FFEE721690029F0D000F066
:1044800041FA0028ECD004494FF080500860BFF397
:104490004F8FBFF36F8FE3E704ED00E02DE9FF4797
:1044A00082B01D468A464FF00008040003D0BAF1DE
:1044B000000F08D011E0502080F31188BFF34F8F18
:1044C000BFF36F8FFEE7206C38B1502080F3118866
:1044D000BFF34F8FBFF36F8FFEE7022D0AD1E06B62
:1044E000012807D0502080F31188BFF34F8FBFF30E
:1044F0006F8FFEE700F042F93F4F4FF000094FF099
:10450000805648B9049838B1502080F31188BFF321
:104510004F8FBFF36F8FFEE7FFF73EFCA06BE16BA1
:10452000884207D3022D05D00498D0B1B8F1000F0E
:104530001AD01EE02A4651462046FFF7DEF8616A8F
:1045400019B104F1240000F0DDF920B13E60BFF3A1
:104550004F8FBFF36F8FFFF73FFC012006B0BDE820
:10456000F087FFF739FC22E06846FFF789FD4FF03E
:104570000108FFF731FCFFF7CDFDFFF70DFC94F9C3
:104580004400401C01D184F8449094F94500401C3B
:1045900001D184F84590FFF71FFC04A9684600F09C
:1045A0008BF830B12046FFF7EFFA00F0E5F9002074
:1045B000D4E7FFF7F1FBA06BE16B884213D1FFF763
:1045C0000BFC04F110000499FFF7E4FC2046FFF710
:1045D000DBFA00F0D1F900289ED13E60BFF34F8F87
:1045E000BFF36F8F98E7FFF7F7FB2046FFF7CCFA92
:1045F00000F0C2F990E7000004ED00E02DE9F0477B
:104600001F4690468946040003D0B9F1000F08D038
:1046100011E0502080F31188BFF34F8FBFF36F8FED
:10462000FEE7206C38B1502080F31188BFF34F8F24
:10463000BFF36F8FFEE7022F0AD1E06B012807D08E
:10464000502080F31188BFF34F8FBFF36F8FFEE7C9
:10465000FFF714FC5020EFF3118680F31188BFF3AD
:104660004F8FBFF36F8FA06BE16B884206D3022F91
:1046700004D0002086F31188BDE8F08794F94550F6
:104680003A4649462046FFF738F8681C04D06D1CAE
:1046900084F845500120EDE7606A0028FAD004F163
:1046A000240000F02FF90028F4D0B8F1000FF1D069
:1046B0000121C8F80010EDE770B50D46040019D0CF
:1046C00005B3FFF769FB164AD1682868431C0FD071
:1046D0002368126A934202D062688A421AD96268D9
:1046E000891A814216D2401A28602046FFF7C8FC7A
:1046F000002410E0502080F31188BFF34F8FBFF3E8
:104700006F8FFEE7502080F31188BFF34F8FBFF308
:104710006F8FFEE70124FFF75FFB204670BD0000AE
:104720004C0000202DE9FF5F8346DDE90E879946A6
:1047300016468A469000FFF75DFA05001AD054200D
:10474000FFF758FA040012D025630021CDE9024199
:10475000CDE900874B46324651465846FFF746F8AA
:104760002046FEF7FFFE012004B0BDE8F09F28467A
:10477000FFF746FB4FF0FF30F6E7000005484169C0
:1047800019B1006B18B1002070470120704702205A
:10479000704700004C0000200148C06870470000CE
:1047A0004C0000202DE9F0412E4C0027206B40B139
:1047B000A069401CA061E06900B101273846BDE84E
:1047C000F081E668761CE66013D1606B006838B152
:1047D000502080F31188BFF34F8FBFF36F8FFEE738
:1047E000606BA16B6163A063206A401C2062FFF7CD
:1047F0004BF9A06ADFF87080864209D3606B0068CD
:1048000080B1606BC068C568686886420DD2A062DE
:104810002068C06A00EB800158F821000128CAD93D
:104820000127C8E74FF0FF30F1E7281DFFF770FAC6
:10483000A86A18B105F11800FFF76AFAE86A0121C1
:10484000226981401143216100EB800108EB810066
:10485000291DFFF795FAE86A2168C96A8842CDD315
:104860000127CBE74C000020DC04002070B50400D9
:104870004FF0000140D0214D2868844207D05020DD
:1048800080F31188BFF34F8FBFF36F8FFEE7A06CEB
:1048900038B1401EA064636CE26A9A422CD040B1E9
:1048A0002AE0502080F31188BFF34F8FBFF36F8F42
:1048B000FEE7201DFFF72CFA114A012150B9E06AEA
:1048C00000EB800352F8233023B92B6901FA00F082
:1048D00083432B61606CE062C0F10700A061E06A75
:1048E0002B6981401943296100EB800002EB8000B5
:1048F000211DFFF745FA0121084670BD4C0000203C
:10490000DC0400202DE9F041C068C468ACB104F1BA
:1049100018000746FFF7FCF9154D286B0126A0B1DA
:1049200039461448FFF72CFAE06A2968C96A8842B8
:104930001CD90120EE61BDE8F081502080F3118880
:10494000BFF34F8FBFF36F8FFEE7201DFFF7E0F936
:10495000E16A2A6906FA01F01043286101EB81003F
:104960000449B43901EB8000211DDBE70020E2E7B8
:104970004C000020900500202DE9F0472C4D00242C
:104980002746286B38B1FFF707FA286B401E2863CB
:10499000286B40B146E0502080F31188BFF34F8F61
:1049A000BFF36F8FFEE7A968224E0120D1B3A6F1B5
:1049B000B40980463068E8B1F068C46804F11800B2
:1049C000FFF7A6F9201DFFF7A3F9E06A2A6908FAA4
:1049D00000F11143296100EB800109EB8100211DE9
:1049E000FFF7CEF9E06A2968C96A8842E2D3C5F8C0
:1049F0001C80DFE70CB1FFF747F8AC6944B14646CD
:104A0000FFF7D0FE00B1EE61641EF9D10020A8616D
:104A1000E86938B10849012738070860BFF34F8FAC
:104A2000BFF36F8FFFF7D8F93846BDE8F087000075
:104A30004C0000209005002004ED00E02DE9F04737
:104A40000746994616460D462820DDF820A0FFF7B8
:104A5000D1F804000ED0B8464F46D1466DB1FEF7EE
:104A6000E9FD04F11801C4F8008081E8E002201D8E
:104A7000FFF76BF92046BDE8F087502080F31188DE
:104A8000BFF34F8FBFF36F8FFEE700001CB5FEF73B
:104A9000D1FD0D48006868B10B490320091DCDE91F
:104AA000000100234FF4807208A10A48FFF73AFE84
:104AB000002807D1502080F31188BFF34F8FBFF338
:104AC0006F8FFEE71CBD000088000020546D72202F
:104AD00053766300653B0008FEB51E461346020090
:104AE000089D4FF0000014D0124C2768002F0FD003
:104AF000CDE900130292062915DAFFF73FFE0228DE
:104B00004FF000030DD0002269462068FFF7C6FC75
:104B1000FEBD502080F31188BFF34F8FBFF36F8F1E
:104B2000FEE72A46F0E70023324669463846FFF79B
:104B300065FDFEBD88000020352C0008F04B000804
:104B40008924000800000000000000008000000030
:104B5000E44B00087D230008000000000000000076
:104B600080000000D84B0008492400080000000025
:104B7000000000000010000000002FC400002F44BF
:104B800000C08FC40000AF440000E1C300600645D0
:104B900000009643004035450000E1C30020644515
:104BA00000C08FC4008089450000C8C30080A245B2
:104BB0000000C8C300C0C14500061016000610164C
:104BC00000000000000000000102030406070809BD
:104BD0000000000001020304526F626F745461739D
:104BE0006B0000004C454453686F775461736B0051
:104BF0004D52314F74686572000000001C4C000873
:104C000000000020C40000005C330008E04C0008F5
:104C1000C4000020647E00006C3300080000000027
:104C20000000000000000000000000000000000084
:104C30000000000000000000000000000000000074
:104C40000000000000000000000000000000000064
:104C50000000000000000000010000001000000043
:104C6000000000000024F40000000000000000002C
:104C70000000000000000000000000000000000034
:104C80000000000000000000000000000000000024
:104C90000000000000000000000000000000000014
:104CA0000000000000000000000000000000000004
:104CB00000000000000000000000000000000000F4
:104CC00000000000000000000000000000000000E4
:104CD00000000000AAAAAAAA00000000000000002C
:04000005080001AD41
:00000001FF
