:020000040800F2
:10000000907F00207D020008B32F0008EB26000837
:10001000B12F00081508000825380008000000006E
:10002000000000000000000000000000C101000806
:10003000890A000800000000150200086531000868
:10004000970200089702000897020008970200082C
:10005000970200089702000897020008970200081C
:10006000970200088B0A0008970200089702000810
:1000700097020008970200089702000897020008FC
:1000800097020008970200089702000897020008EC
:100090001908000897020008970200089702000854
:1000A00097020008970200089702000897020008CC
:1000B00097020008970200089702000897020008BC
:1000C00097020008970200089702000897020008AC
:1000D000970200089702000897020008970200089C
:1000E000970200089702000897020008970200088C
:1000F000970200089702000897020008970200087C
:10010000970200089702000897020008970200086B
:100110009702000897020008970200086932000859
:1001200097020008C1090008CD09000897020008DD
:10013000970200089702000897020008970200083B
:100140002508000897020008970200089702000897
:1001500097020008D90900089702000897020008D2
:10016000970200089702000897020008970200080B
:10017000970200089702000897020008000000009C
:1001800097020008970200089702000897020008EB
:1001900097020008970200089702000897020008DB
:1001A000000000000000000097020008DFF80CD0FB
:1001B00000F0A2FA0048004761420008907F00204A
:1001C0002B4B19680868B0E8F04F80F30988BFF33B
:1001D0006F8F4FF0000080F311887047000000001F
:1001E00006480068006880F3088862B661B6BFF30D
:1001F0004F8FBFF36F8F00DF00BF00BF08ED00E03F
:10020000DFF80C00016841F470010160704700BF25
:1002100088ED00E0EFF30980BFF36F8F144B1A688D
:100220001EF0100F08BF20ED108A20E9F04F10607B
:1002300008B44FF0500080F31188BFF34F8FBFF325
:100240006F8F04F0DDFE4FF0000080F3118808BCD2
:1002500019680868B0E8F04F1EF0100F08BFB0EC46
:10026000108A80F30988BFF36F8F704700BF00BF0B
:100270003C000020EFF305807047000006488047EF
:1002800006480047FEE7FEE7FEE7FEE7FEE7FEE77B
:10029000FEE7FEE7FEE7FEE715320008AD010008C5
:1002A0002DE9F05F0546002092469B4688460646AB
:1002B000814640241BE0284641464746224600F03E
:1002C0009CF953465A46C01A914110D3114618461C
:1002D000224600F083F92D1A67EB01084F462246AB
:1002E0000120002100F07AF917EB00094E41201E91
:1002F000A4F10104DFDC484631462A464346BDE806
:10030000F09F40EA01039B0703D009E008C9121FD0
:1003100008C0042AFAD203E011F8013B00F8013BBF
:10032000521EF9D27047D2B201E000F8012B491EEB
:10033000FBD270470022F6E710B513460A46044682
:100340001946FFF7F0FF204610BD2DE9FE4F80460D
:1003500081EA0300C00F0C46009021F0004123F019
:100360000045B8EB0200A94105D24046214690461F
:100370001C460B46024623F00040104347D0270D91
:10038000C7F30A00C3F30A510290401A01904028B3
:100390006BDAC3F3130040F4801B0098924620B13F
:1003A0000023D2EB030A63EB0B0B01985946C0F113
:1003B0004002504600F012F906460D465046594696
:1003C000019A00F02AF910EB08006141002487EA45
:1003D000115284EAE7731A4340D0009A62B3019A3B
:1003E000012A4FEA075215DC001B61EB02014FF0B6
:1003F000004202EA0752CDE90042001C41F580119B
:1004000032462B4600F02AF903B0BDE8F08F404693
:100410002146F9E7001B61EB0201001C41F5801346
:1004200000185B412018A2F5001747EB030140EAD2
:10043000D570B6196D4111E06D084FEA360645EAF0
:10044000C0754FEA0752001B61EB0201001C41F529
:10045000801149084FEA30000019514132462B46BD
:1004600003B0BDE8F04F00F0EAB800980122400068
:100470000023D0EB020263EBE073009821464FEAC1
:10048000E074B8EB000061EB0401E9E783F000439E
:100490005BE781F0004158E72DE9FE4F81EA030454
:1004A00004F0004421F0004100944FF0000B23F0D1
:1004B000004350EA01045ED052EA03045BD0C3F368
:1004C0000A54C1F30A552C44A4F2F3340194A0FB5E
:1004D0000254C1F3130141F48011C3F3130343F435
:1004E000801301FB024400FB034E840A970A44EA8E
:1004F000815447EA8357A4FB076802958D0A05FBE0
:1005000007854FEA932C04FB0C542705029D4FEA04
:10051000065847EA1637B5EB08056EEB070C870E51
:10052000920E47EA811742EA8312A7FB0201B6EB5B
:100530000B0164EB00042B0D43EA0C335E1844EB13
:100540001C50DA465146E7FB0201C5F313044FEA9B
:100550000B3343EA14534FEA0432019C43EA060387
:10056000A4F10C040294009CCDE900B400F076F8EC
:1005700003B0BDE8F08F00200146F9E70EB5C10FCA
:1005800080EAE0700844CA07002140F233438DE856
:100590000E000A460B4600F061F803B000BD70B5CE
:1005A000C1F30A5201F000450024C1F3130140F2E7
:1005B000FF3341F480119A4201DA002070BD40F20D
:1005C00033439A42A2F2334203DC524200F015F860
:1005D00000E090402C43F1D0404270BD202A04DB63
:1005E000203A00FA02F1002070479140C2F1200346
:1005F00020FA03F3194390407047202A04DB203A85
:1006000021FA02F00021704721FA02F3D040C2F132
:1006100020029140084319467047202A06DBCB1779
:10062000203A41FA02F043EAE07306E041FA02F3AD
:10063000D040C2F12002914008431946704710B5DE
:10064000141E73F1000408DA401C41F100019218F5
:100650005B411A4301D120F0010010BD2DE9F04D9E
:1006600092469B4611B1B1FA81F202E0B0FA80F2F3
:1006700020329046FFF7B2FF04460F4640EA0A00D8
:1006800041EA0B0153465A46084313D0114653EA38
:10069000010019D0C8F140025046FFF7AEFF0546F1
:1006A0000E46504659464246FFF798FF084305D08C
:1006B000012004E020463946BDE8F08D00200543C6
:1006C00046EAE0762C4337430A986305E40AA0EB38
:1006D00008000022FD0A44EA47540A3002D50020EF
:1006E0000146E9E7010510196941DDE908450019EE
:1006F0006941BDE8F04DA2E7064C074D06E0E06811
:1007000040F0010394E8070098471034AC42F6D358
:10071000FFF750FDBC5B0008DC5B00082DE9F04DE5
:1007200081EA030404F0004B21F0004514464FF029
:10073000000A23F0004150EA050220D054EA0102E9
:100740001DD0C5F30A570246C5F31303C1F31300C6
:10075000C1F30A5640F4801543F48013A7EB060852
:10076000101BD64608F2FD3873EB050002D308F1E2
:10077000010801E092185B41B8F1000F03DA002094
:100780000146BDE8F08D00204FF4801106468446F6
:100790000EE0171B73EB050705D3121B63EB050374
:1007A00006434CEA010C49084FEA300092185B41BD
:1007B00050EA0107EDD152EA030012D082EA0400A8
:1007C00083EA0501084305D0101BAB4106D2012284
:1007D000002306E000224FF0004302E06FF0010228
:1007E00053101AEB06004CEB085110EB0A0041EBDA
:1007F0000B01BDE8F04DFFF722BF0EB540F23341CB
:1008000002910021CDE900110A460B46FFF726FFB1
:1008100003B000BDFEE70000014800F0F1BB00009E
:10082000A0020020014800F0EBBB0000C80200203D
:1008300000B50A4802F0CEFB0848303002F0CAFB8F
:100840000648603002F0C6FB0448903002F0C2FB5C
:1008500002485DF804EBC03002F0BCBBCC000020C5
:10086000064A518849BA81611288B1F5004F52BADF
:10087000028002DDA1F58031816170470100002016
:1008800010B5A0F20120052824D2DFE800F003080B
:100890000E141A00012001F08FFF0F4816E002200D
:1008A00001F08AFF0C48303010E0032001F084FF93
:1008B000094860300AE0042001F07EFF06489030CD
:1008C00004E0042001F078FF0348C030BDE8104088
:1008D000FFF7C6BF10BD0000CC00002010B58AB0E5
:1008E000002104460120CDE90610039105910091F5
:1008F00001910291049108900E200E4909908C42BA
:1009000000D105906946204600F076FA08B100F063
:10091000BFF8204600F096FD08B100F0B9F80221BA
:10092000204600F0F1F908B100F0B2F80AB000205A
:1009300010BD0000C802002030B589B0082506951A
:100940000C9CAD0102950025049505950D0A8DF8C6
:1009500000508DF80110110A8DF80210190A8DF857
:1009600004108DF80530210A8DF806108DF803204B
:100970008DF8074001236A4602A900F0D9F9002842
:1009800001D000F085F809B030BD00B589B008226B
:10099000049240F2FF1200920022029203920A0A8D
:1009A0008DF818208DF81910012306AA694600F069
:1009B000BFF9002801D000F06BF809B000BD0000BD
:1009C000014800F073BD00000C040020014800F055
:1009D0006DBD0000AC030020014800F067BD0000C1
:1009E0006C04002001681823CAB2103AB2FBF3F27B
:1009F000054B6FF30901032A9B5CC36500D9091DF0
:100A00008165084670470000545A000810B5014639
:100A100000208B698A6A4FF0C07453B1B3F5005F50
:100A200015D072B1012A0CD0022A0AD0032A09D1AA
:100A300004E01AB1012A06D0022A03D1C96AC90109
:100A400000D5012010BDC96AA142FAD010BD002A0C
:100A5000F7D0012AF2D0022AF3D0032AF3D010BD36
:100A600030B50468256825F4802525600468636036
:100A70008368402B036803D099600068C26030BD72
:100A80009A600068C16030BD7047082000F098BED1
:100A90007047000070B52DED0E8B9FED6DBB6E4E57
:100AA0007068FFF76BFD41EC190B3068FFF766FDCE
:100AB00041EC180BB068FFF761FD9FED681B53EC2C
:100AC000112BFFF7E9FC41EC1A0B51EC190B81F0EB
:100AD000004141EC190B53EC1A2B51EC1B0BFFF7A7
:100AE000DBFC0C4644EC1A0B05469FED5EEBB0EECA
:100AF0004E0AF0EE6E0A02F0AFFE53EC182B51ECEA
:100B0000100BFFF7C9FC41EC1B0BB0EE4E0AF0EEE8
:100B10006E0A02F005FF53EC192B51EC100BFFF796
:100B2000BBFC53EC1B2BFFF7B1FC53EC1A2BFFF76C
:100B30000CFC41EC1D0B44EC1A5BB0EE4E0AF0EEDF
:100B40006E0A02F089FE53EC182B51EC100BFFF7E4
:100B5000A3FC41EC1B0BB0EE4E0AF0EE6E0A02F065
:100B6000DFFE51EC100B81F0004153EC192BFFF725
:100B700093FC53EC1B2BFFF789FC53EC1A2BFFF76C
:100B8000E4FB41EC1C0B44EC1A5BB0EE4E0AF0EEB9
:100B90006E0A02F0C5FE53EC192B51EC100BFFF757
:100BA0007BFC41EC1B0BB0EE4E0AF0EE6E0A02F03D
:100BB00053FE53EC182B51EC100BFFF76DFC53EC6C
:100BC0001B2BFFF763FC53EC1A2BFFF7BEFB41EC2A
:100BD0001B0B44EC1A5BB0EE4E0AF0EE6E0A02F00C
:100BE0003BFE53EC182B51EC100BFFF755FC41EC7E
:100BF000180BB0EE4E0AF0EE6E0A02F091FE53ECC6
:100C0000192B51EC100BFFF747FC53EC182BFFF797
:100C10009CFB53EC1A2BFFF798FB41EC180B51ECA3
:100C20001D0BFFF7BCFC706351EC1C0BFFF7B7FC0E
:100C3000706651EC1B0BFFF7B2FCC6F8940051EC48
:100C4000180BFFF7ACFCC6F8C400BDEC0E8B70BDF2
:100C50000000000000707740B4000020FCA9F1D231
:100C60004D62503F00000040FB21E93F30B5224873
:100C700000232349027821480478052C3AD2DFE882
:100C800004F00307101A1E000D2A09D1012106E005
:100C90000A2A02D00D2A03D02CE0437002210170F1
:100CA00030BD44780A55641CE1B241701829F7D36D
:100CB00043700321F3E70A2A1CD10421EFE70D2A30
:100CC00018D1104A91ED000A82ED430A91ED010A14
:100CD00082ED440A91ED020A82ED450A91ED030A84
:100CE00082ED410A91ED040A82ED420A91ED050A76
:100CF00082ED460A037030BD000000202000002075
:100D000068020020B400002090F82020012A09D0B9
:100D100090F82020022A05D0416A41F480214162E6
:100D200001207047006842690A4342610020704711
:100D3000F0B590F82040012C07D090F82040022C0C
:100D400003D0416A41F4802153E00468A5686D0135
:100D500005D4A5682D0102D4A568ED0046D5A46888
:100D60000125C4F30164A5401D608D684FF4C07374
:100D70009DB1CE6835434E6845EAC605066803EB6B
:100D80000417F5514FF4C275076805EB04150E6999
:100D90007E51097D012905D009E00E88CD6845EA1C
:100DA0004655EBE701684E5946F480764E5111796D
:100DB000D2F805504FF4C67641EA0521056806EBE6
:100DC0000416A9511178D2F801204FF4C47541EAF4
:100DD0000221026805EB04155151006803EB041170
:100DE000425842F0010242500020F0BD416A41F4F5
:100DF000001141620120F0BD10B590F82020012AB9
:100E000009D090F82020022A05D0416A41F48021BF
:100E10004162012010BD3A48D0F8002242F00102A0
:100E2000C0F80022D0F8002222F47C52C0F8002240
:100E3000D0F800224B6A42EA0322C0F800220B7D60
:100E400001229A40D0F81C329343C0F81C32CB697F
:100E5000B3B9D0F80C329343C0F80C328C894B688C
:100E600064F31F434C6900EBC404C4F840320C899E
:100E70000B6864F31F434C6900EBC404C4F84432AC
:100E8000CB69012B16D1D0F80C321343C0F80C32C9
:100E90000C884B6864F31F434C6900EBC404C4F82E
:100EA00040320C89CB6864F31F434C6900EBC404E7
:100EB000C4F844328B69002BD0F804320ED01343AF
:100EC000C0F804320B69002BD0F8143208D0134359
:100ED000C0F81432096A012904D008E09343EFE70F
:100EE0009343F5E7D0F81C121143C0F81C12D0F858
:100EF000001221F00101C0F80012002010BD000016
:100F000000640040704730B590F82040012C07D0B5
:100F100090F82040022C03D0416A41F4802109E07E
:100F200011B1012909D00CE00468E46807E0416AC6
:100F300041F400114162012030BD04682469A40716
:100F4000F5D04FF4D874056804EB01142D5915F051
:100F50000405956005682D5942D0ED085560056877
:100F60002C59C4F34004D4604FF4DA74056804EBE0
:100F700001142D5905F00F05156105682D59C5F3AC
:100F80000725956105682C59240C54614FF4DC72D7
:100F9000046802EB0112A4581C700468A458240AC7
:100FA0005C700468A458240C9C700468A258120E4B
:100FB000DA704FF4DE72046802EB0112A4581C715F
:100FC0000468A458240A5C710468A458240C9C7119
:100FD0000468A258120EDA7129B1012909D00DE076
:100FE0006D0D1560BBE70068C16841F02001C1606C
:100FF00004E00068016941F020010161002030BD7A
:101000002DE9F05F0546006800244669D0F8049099
:101010008768D0F80CB0D0F810A0D0F81880F1078D
:1010200048D0F90714D001218160B80703D52846BC
:1010300000F035FA0CE0780702D54FF4006407E0C1
:10104000380702D54FF4805402E0284600F026FA13
:10105000F80516D529684FF480708860B80503D567
:10106000284600F01EFA0CE0780502D544F400543E
:1010700007E0380502D544F4804402E0284600F039
:101080000FFAF80316D529684FF480308860B8034A
:1010900003D5284600F007FA0CE0780302D544F4A3
:1010A000004407E0380302D544F4803402E02846C7
:1010B00000F0F8F9300707D55FEACB6004D529685E
:1010C000102044F40074C86070074FF0080707D57B
:1010D0005FEA0B7004D52868C760284600F09AF9CB
:1010E000B00706D52868C068800702D0284600F0FF
:1010F00093F9700607D55FEACA6004D52968102005
:1011000044F480640861B00607D55FEA0A7004D52C
:1011100028680761284600F091F9F00606D528688E
:101120000069800702D0284600F089F9B00308D58D
:101130005FEAC96005D5296810204860284600F09C
:101140007FF9F00307D55FEA097004D52868476086
:10115000284600F0A9F9300446D55FEA497040D529
:10116000F00504D55FEAC87001D044F00104B00571
:1011700004D55FEA887001D544F00204700504D5F7
:101180005FEA487001D544F00404300529D518F011
:10119000700F26D008F07000402815D006DC10280B
:1011A00009D020280AD0302816D10AE050280ED0C5
:1011B000602811D10EE044F008040DE044F0100462
:1011C0000AE044F0200407E044F0400404E044F066
:1011D000800401E044F480742868816921F0700182
:1011E0008161296804204860002C05D0686A20438A
:1011F00068622846FFF786FEBDE8F09F70B50400E0
:1012000003D094F8200010B104E0012070BD204606
:1012100000F082F82068016821F00201016000F00E
:10122000CBFB0546052604E000F0C6FB401B0A2860
:1012300011D8206840688007F6D42068016841F022
:101240000101016000F0B8FB05460BE000F0B4FBC3
:10125000401B0A2806D9606A40F40030606284F8B6
:101260002060D2E720684068C007EFD0207E0128C8
:10127000206801683DD021F080010160607E012876
:101280002068016838D021F040010160A07E01286B
:101290002068016833D021F020010160E07E012840
:1012A000206801682ED041F010010160207F0128E4
:1012B0002068016829D021F008010160607F0128C1
:1012C0002068016824D021F004010160D4E9020102
:1012D0000843D4E90412114308436168491E0843D6
:1012E0002168C86100206062012084F8200000208D
:1012F00070BD41F08001C0E741F04001C5E741F019
:101300002001CAE721F01001CFE741F00801D4E73E
:1013100041F00401D9E70000F0B587B0044614217C
:101320006846FFF707F8364B3648DFF8D0E0196813
:10133000D4F800C0334A03250226092710300024C0
:10134000491CF44522D11960012907D1016841F0F7
:1013500000710160006800F000700590106840F0B6
:10136000080010601068CDE9005600F00800CDE9D3
:10137000047069462448CDE9024500F02DFA0022A8
:101380000521142000F0A2FB142033E0DFF87CE0FC
:10139000F44531D1D0F800C04CF0806CC0F800C0EA
:1013A000D0F800C001290CF0806CCDF814C0196091
:1013B00007D1016841F000710160006800F0007021
:1013C0000590106840F002001060106802AB00F059
:1013D000020005904FF44050CDE9000683E8B000CC
:1013E00069460B4800F0F8F900220521402000F082
:1013F0006DFB402000F05EFB07B0F0BD00640040D4
:101400002800002030380240000C024000680040F4
:10141000000402407047000000B587B0064B6A46E2
:101420000021FFF770FD08B1FFF732FB0098FFF7CE
:1014300027FA07B000BD0000010000207047704788
:101440007047000070B5044690F82000012804D0D1
:10145000606A40F40020606218E0022084F82000F6
:101460002068016821F00101016000F0A5FA05463D
:101470000EE000BF00F0A0FA401B0A2808D9606AFD
:1014800040F400306062052084F82000012070BD27
:1014900020684068C007EDD1606270BD704770473A
:1014A0007047704770477047704700002DE9F84358
:1014B00004464FF00009CDF8009063484FF41651F0
:1014C000A56D0068B0FBF1F72E6894F85C10082059
:1014D00000FA01F131420FD021680A6852070BD59A
:1014E0000A6822F004020A6094F85C108840A86040
:1014F000606D40F00100606594F85C104FF00108E9
:1015000008FA01F0304208D021684969090604D57B
:10151000A860606D40F00200606594F85C100420E3
:101520008840304208D021680968890704D5A8603E
:10153000606D40F00400606594F85C1010208840F5
:10154000304218D021680968090714D5A8602068BE
:101550000168490304D50068000308D5A16C07E0C1
:101560000168C90503D4016821F008010160216CFC
:1015700009B12046884794F85C102020884030420A
:1015800031D021680968C9062DD5A86094F83500C6
:1015900005282068016806D0490347D50068000384
:1015A0001DD4616C1CE021F01601016020684169C6
:1015B00021F080014161206C08B9A06C20B1206845
:1015C000016821F00801016094F85C103F20884018
:1015D000A86084F8349084F83580216D1FE0E16BB9
:1015E00009B120468847606D00282BD0606DC00788
:1015F00014D0052084F835002068016821F001012D
:1016000001600098401C0090B84203D82068006830
:10161000C007F6D184F8349084F83580E16C002955
:1016200010D001B02046BDE8F04308470168C90565
:10163000D5D4016821F01001016084F8349084F859
:101640003580CCE7BDE8F883380000202DE9F04173
:10165000044600F0B1F906465CB1002584F8345028
:10166000022084F835002068016821F00101016042
:101670000DE00120BDE8F08100F09EF9801B0528F7
:1016800005D920206065032084F83500F2E7206842
:101690000068C007F0D12268116820480140D4E9F1
:1016A00001031843D4E903363343184363691843ED
:1016B000A3691843E3691843236A18430843616A1E
:1016C000042903D1D4E90B1319430843106020689F
:1016D0004069666A20F0070130460E43012704285E
:1016E0000CD1A06A0643E06A40B12046FFF78EF9AC
:1016F00020B14020606584F83570BAE72068466103
:101700002046FFF76FF994F85C203F2191408160FB
:10171000656584F835700020ACE700003F8010F06C
:101720002DE9F0410446866D90F83400002501282B
:101730000DD0012084F8340094F835700020012F7A
:1017400007D084F8340002252846BDE8F081022045
:10175000FBE7022784F8357060652046FFF780F9C3
:1017600094F85C103F208840B0602068016841F028
:10177000160101602068416941F080014161206CDF
:1017800020B12068016841F008010160206801680B
:1017900041F001010160D7E770B5044600F00CF993
:1017A0000546601C02D004480078044400F004F9A7
:1017B000401BA042FAD370BD2C00002070470000EF
:1017C000044910B50A68024202D00860FFF7F6FF2C
:1017D00010BD0000143C01402DE9F84FDFF890B136
:1017E00000224FF001084FF0030A4FF00F090BF1F0
:1017F000040E00BF0B6808FA02F42340A3426ED126
:101800004D68022D01D0122D0ED1D50800EB850CAC
:10181000DCF820505607F70E09FA07F6B5430E69B3
:10182000BE402E43CCF82060066855000F790AFAB6
:1018300005FC07F0030726EA0C06AF4037430760B4
:101840004E68012E05D0022E03D0112E01D0122E8B
:101850000ED18768CE6827EA0C07AE403E4386600B
:101860004668A6430C79C4F30014944034434460A2
:10187000C4688E6824EA0C04AE402643C6604C68F7
:10188000E4006FD53B4C256845F48045256024680D
:1018900022F0030504F480440094374C2E19D6F846
:1018A000084895072F0F09FA07F5AC43334DA842B6
:1018B00001D100252EE0324DA84201D1012529E0B9
:1018C000304DA84201D1022524E02F4DA84201D17C
:1018D00003251FE02D4DA84202D104251AE041E066
:1018E0002B4DA84201D1052514E02A4DA84201D173
:1018F00006250FE0284DA84201D107250AE0274D13
:10190000A84201D1082505E0254DA84201D10925AD
:1019100000E00A25BD402543C6F80858DBF8004022
:101920005D464E689C43F60300D51C432C60DEF8F0
:10193000004075464E689C43B60300D51C432C609E
:101940000B4D08352C684E689C43F60200D51C43AD
:101950002C60074D0C352C684E689C43B60200D5B0
:101960001C432C60521C102AFFF444AFBDE8F88FD2
:10197000003C014044380240003001400000024079
:101980000004024000080240000C02400010024027
:101990000014024000180240001C024000200240D7
:1019A0000024024042694A40426170470AB18161A5
:1019B00070470904FBE70000014880687047000099
:1019C0002C00002002488168027811448160704731
:1019D0002C0000200B4810B5016841F40071016033
:1019E000016841F480610160016841F48071016027
:1019F000032000F08BF8002000F006F800F03EF81D
:101A0000002010BD003C024010B5014688B0002205
:101A1000372000F05BF8372000F04CF81348002422
:101A2000016841F020010160006805A900F0200074
:101A30000690684600F014F900F032F90C494000B5
:101A4000B0FBF1F10C480B4A491E026040F2E7324C
:101A5000C0E90324C0E9011400F02CFB10B10120FF
:101A600008B010BD044800F041FBF9E740380240DF
:101A700040420F0000140040CC0400200C4882B00B
:101A8000016841F480410160006800F480400090EA
:101A90000748001F016841F0805101600068002282
:101AA00000F0805000900F21901E02B000F00EB8A0
:101AB0004438024000F01F0201219140400980009B
:101AC00000F1E020C0F8001170470000F0B40E4BA8
:101AD0001B680C46C3F30223C3F10705042D00D98C
:101AE0000425191D072901D2002300E0DB1E012671
:101AF00006FA05F1491E214099409E40761E164087
:101B00003143F0BC01F056BA0CED00E0064900F09C
:101B1000070208684FF6FF03184040EA0220034A14
:101B200010430860704700000CED00E00000FA056B
:101B30002DE9F0470E46050065D0DFF81481D8F88E
:101B40000000F7B200F00F00B04207D288F8007032
:101B5000D8F8000000F00F00B04254D128683D4C86
:101B6000810712D5400703D5206840F4E05020607B
:101B70002878000703D5206840F460402060206882
:101B8000A96820F0F000084320602878C0072DD015
:101B9000304968680839012812D0022813D0032878
:101BA00011D00968890700292DDA216821F0030185
:101BB00001432160FFF700FF814641F2883A0EE0C1
:101BC00009688903EFE709688901ECE7FFF7F4FE8C
:101BD000A0EB0901514502D90320BDE8F087206838
:101BE000696800F00C00B0EB810FEFD1D8F800105D
:101BF000404601F00F01B14207D90770006800F0BC
:101C00000F00B04201D00120E7E72878400705D552
:101C10002068E96820F4E050084320602878000735
:101C200006D52068296920F4604040EAC1002060A0
:101C300000F056F82168084AC1F30311515CC8400E
:101C4000064908600020FFF7DFFE0020C5E700001E
:101C5000003C0240083802405C5A0008380000206E
:101C60000F2202600C4A136803F0030343601368F9
:101C700003F0F0038360136803F4E053C360126859
:101C80004FF4E05303EAD20202610448006800F016
:101C90000F0008607047000008380240003C024016
:101CA0000448054900680968044AC1F38221515C6F
:101CB000C840704738000020083802406C5A0008BD
:101CC0000448054900680968044AC1F34231515C7F
:101CD000C840704738000020083802406C5A00089D
:101CE000154810B5006810F00C02144813D01449C0
:101CF000042A0FD0082A0ED10F4C241F2268236813
:101D000002F03F025B0207D52068C0F38810A0FBF9
:101D1000010106E0084610BD2168C1F38811A1FB4E
:101D200000010023FEF7BCFA2168C1F30141491C00
:101D30004900B0FBF1F010BD083802400024F40067
:101D4000001BB7002DE9F84F050076D02878DFF8A2
:101D5000F8B2BE4CC00749D0DBF800105846C1F3BA
:101D60008101012908D00068C0F3810002280AD14E
:101D7000201D0068400206D52068800336D56868BB
:101D80000028E2D032E06868B0F5803F10D0B0F5AE
:101D9000A02F206810D020F480302060206820F42C
:101DA000802020606868A0B1FFF706FE06460CE0C0
:101DB000206840F48030F4E740F480202060F7E7AA
:101DC000FFF7FAFD801B642873D820688003F7D5DD
:101DD0000CE0FFF7F1FD064605E000BFFFF7ECFD64
:101DE000801B6428F0D820688003F7D42878DFF8B7
:101DF000608280074FF000093ED5DBF8001058469E
:101E000011F00C0F09D00068C0F3810002280BD13B
:101E10008D48001F0068400206D42068800715D551
:101E2000E868012809D111E0E868B8B10120C8F8D4
:101E30000000FFF7C1FD064605E002E1FFF7BCFD2B
:101E4000801B0228C0D820688007F7D52068296940
:101E500020F0F80040EAC10020600DE0C8F80090D2
:101E6000FFF7AAFD064604E0FFF7A6FD801B022847
:101E70001FD820688007F7D42878000722D5724E33
:101E8000744869696C3671B101210160FFF794FDF6
:101E9000074604E0FFF790FDC01B022809D8306810
:101EA0008007F7D50EE0C0F80090FFF785FD0746E4
:101EB00005E083E0FFF780FDC01B02287ED8306874
:101EC0008007F7D42878400768D5DFF87CA1002781
:101ED0000AF1380ADAF80000C0000BD4DAF8001072
:101EE00041F08051CAF80010DAF80000012700F034
:101EF00080500090584E3068C00510D4306840F4CF
:101F000080703060FFF758FD009005E0FFF754FD4A
:101F10000099401A022851D83068C005F6D54A4EBB
:101F2000A868683601280FD00528306810D020F046
:101F300001003060306820F004003060A868B8B15B
:101F4000FFF73AFD00900FE0306840F00100F4E741
:101F500040F004003060F7E7FFF72EFD0099411ACA
:101F600041F28830814264D830688007F4D50EE0B1
:101F7000FFF722FD009007E0FFF71EFD0099411AD0
:101F800041F28830814254D830688007F4D42FB1B0
:101F9000DAF8001021F08051CAF80010A869C0B327
:101FA000DBF80010C1F3810102294AD0022848461B
:101FB00007D0C8F86000FFF7FFFC00E039E00546F5
:101FC0003AE04746C8F86000FFF7F6FC064604E032
:101FD000FFF7F2FC801B02282BD820688001F7D481
:101FE000D5E907010843A96A1C4A490802EB0141E7
:101FF0006A6A41EA8211084395F82C1040EA0161AF
:102000001148001F016001203866FFF7D5FC054626
:1020100005E014E0FFF7D0FC401B022809D8206837
:102020008001F7D50BE000BFFFF7C6FC401B02287C
:1020300002D90320BDE8F88F20688001F4D4002085
:10204000F8E70120F6E700000838024000380240B7
:1020500000004742800E4742007000400000FFFF32
:102060007047704730B590F83820012A20D00122FF
:1020700080F83820022380F8393003685C6824F047
:1020800070045C6003685C680D682C435C600368E6
:102090009C6824F080049C6003689C6849680C4339
:1020A0009C6080F83920002180F83810084630BD47
:1020B000022030BD10B5040003D094F8390010B1EF
:1020C00007E0012010BD002084F83800204600F011
:1020D0000CF8022084F83900211D206801F0CAF8AC
:1020E000012084F83900002010BD70470168CA68DB
:1020F00042F00102CA600068016841F0010101601C
:1021000000207047704770B50446006801694FF0C1
:102110000005C943890715D4C168C943890711D48B
:10212000E91E016101202076206880698007204631
:1021300002D0FFF7E7FF04E000F0C0F8204600F00F
:1021400053F9257620680169C943490717D4C16846
:10215000C943490713D46FF00401016102202076BE
:102160002068806910F4407F204602D0FFF7CAFF44
:1021700004E000F0A3F8204600F036F92576206848
:102180000169C943090716D4C168C943090712D4B4
:102190006FF008010161042020762068C069800783
:1021A000204602D0FFF7AEFF04E000F087F820469B
:1021B00000F01AF9257620680169C943C90617D4C9
:1021C000C168C943C90613D46FF01001016108202A
:1021D00020762068C06910F4407F204602D0FFF7C7
:1021E00091FF04E000F06AF8204600F0FDF8257643
:1021F00020680169C943C90708D1C168C943C90733
:1022000004D1891E0161204600F00CF920680169A3
:10221000C943090609D4C168C943090605D46FF04A
:10222000800101612046FFF71BFF20680169C94357
:10223000490609D4C168C943490605D46FF0400175
:102240000161204600F0F8F820680169C943890659
:102250000BD4C168C943890607D46FF0200101611E
:102260002046BDE87040FFF7FCBE70BD10B586B0DB
:10227000044614216846FEF75DF82068B0F1804FEF
:1022800015D10C480021026842F00102026000688A
:1022900000F001000590032000900220CDE901012B
:1022A0000120CDE9031069460348FFF795FA06B00F
:1022B00010BD00003038024000000240704770B589
:1022C000044690F838000D4601280DD0012684F808
:1022D0003860022084F8390042B1042A18D0082A54
:1022E0002AD00C2A4DD139E0022070BD206801F0BF
:1022F0002DF82068816941F00801816120688169B9
:1023000021F004018161206881692A69114311E08B
:10231000206801F047F82068816941F4006181611B
:102320002068816921F480618161206881692A695E
:1023300041EA0221816124E0206801F065F820680B
:10234000C16941F00801C1612068C16921F004013F
:10235000C1612068C1692A69114311E0206801F058
:1023600083F82068C16941F40061C1612068C169D6
:1023700021F48061C1612068C1692A6941EA0221B2
:10238000C16184F83960002084F8380070BD10B550
:10239000040003D094F8390010B107E0012010BD0B
:1023A000002084F83800204600F00CF8022084F861
:1023B0003900211D206800F05DFF012084F83900FC
:1023C000002010BD08B50068B0F1804F08D1054865
:1023D000016841F001010160006800F00100009017
:1023E00008BD0000403802407047000010B50446A8
:1023F0000068012200F09EFF08492068884202D050
:102400000749884203D1416C41F40041416420688E
:10241000016841F001010160002010BD0000014091
:102420000004014000680349884201D1FFF7CABA9D
:1024300070470000001400407047704770B50400FA
:1024400004D094F83900002510B106E0012070BDD9
:1024500084F83850204600F023F8242084F839000E
:102460002068C16821F40051C160204601F084F861
:102470002068016921F4904101612068416921F0DF
:102480002A0141612068C16841F40051C160E563DF
:10249000202084F8390084F83A00002070BD000044
:1024A0002DE9F04786B0064614216846FDF742FF45
:1024B0004F48DFF838C133684D49143802250127E9
:1024C000032200244FF4806A63453DD10B6843F03A
:1024D00010030B60096801F010010591016841F0DB
:1024E00002010160016801F002010591016841F0FB
:1024F000010101600068904600F001000590802015
:102500004FF007098DE8A10369463A48FFF764F9DF
:1025100028028DE8A10369463748FFF75DF9384D79
:1025200036482860F806C5E90104C5E9034A6C612C
:10253000AC61EC612C6228466C62FFF787F808B149
:10254000FEF7A6FA75634DE0DFF8B8C063454AD1DF
:102550000B6843F020030B60096801F0200105912E
:10256000016841F0400101600068694600F04000E8
:1025700005904FF484408DE8A1000820CDE90320A8
:102580002148FFF729F91E4D1C486035183828608E
:102590004FF02068C5E90184C5E9034A6C61AC616C
:1025A000EC612C62574628466C62FFF74FF808B181
:1025B000FEF76EFA7563AE63114D1048C03560309A
:1025C000E5E80208402091C50D4845F81449C0309F
:1025D000AC61EC612C626C62FFF738F808B1FEF771
:1025E00057FA3563AE6306B0BDE8F08700100140CE
:1025F00044380240000402400000024040640240AF
:10260000AC0300200014014000180240F8B5044655
:1026100090F83A0020283CD1C1B3BAB394F83800FE
:10262000012836D0012084F83800A162A285002557
:10263000E563222084F83A00636B1748D863636B24
:1026400016481864636B1648D864606B13460565BA
:102650000846666B216802463046091DFFF760F8A0
:10266000206801684168009184F83850C16841F4DD
:102670008071C1602068416941F0010141612068B9
:10268000416941F0400141610020F8BDFFE70120B0
:10269000FBE70220F9E70000033500083F3500089A
:1026A000B93400080C4910B5884208D112220B49F0
:1026B0000948FFF7ABFFBDE8104000F0C7BC084970
:1026C000884208D1012207490548FFF79FFFBDE86E
:1026D0001040FEF7CBBA10BD2C030020540200209E
:1026E0006C030020000000207047FEE70122D102A9
:1026F0000648FFF75BF9012291030548FFF756F9F9
:1027000000F008F8012001F0EDFDF9E700100240AB
:102710000014024070B5244D02212846FFF742F90B
:10272000224C2068FFF738F804212846FFF73AF9D1
:102730002068FFF731F808212846FFF733F92068B1
:10274000FFF72AF810212846FFF72CF92068FFF739
:1027500023F820212846FFF725F92068FFF71CF809
:1027600040212846FFF71EF92068FFF715F8802161
:102770002846FFF717F92068FFF70EF8A915284635
:10278000FFF710F92068FFF707F84FF48041084879
:10279000FFF708F9E9140748FFF704F92068BDE8D6
:1027A0007040FEF7F9BF000000180240240000202E
:1027B0000014024000100240024A002142F820109A
:1027C000704700008C02002000F06AFC1C4C0122C3
:1027D00011462046FFF7EAF8012210211948FFF7B9
:1027E000E5F8012202212046FFF7E0F8164940F201
:1027F000D66009684863154C207C072819D2DFE8A9
:1028000000F00F041207090C150000F087F801E032
:1028100000F0A6F800F0A4FC0DE000F0D9F8F9E70C
:1028200000F022F9F6E700F0AFF9F3E700F00AF95B
:1028300001E000F095F8012001F054FDDCE7000014
:102840000014024000100240F0020020B4000020FA
:10285000074C41F288350326B4F91600A84202DD80
:10286000267400F053FC012001F03CFDF4E7000069
:10287000B40000202749284891F90830032B07D0DD
:102880000A46012B92F9092004D0022B0FD014E044
:1028900003213CE0012A04D0022A06D0032A0CD1ED
:1028A00001E0002133E001222EE002212FE0012A85
:1028B00027D0022A2AD0032A25D0027C012A03D05D
:1028C000052A01D0042A1BD1B1F90220A2F58062A9
:1028D00002EB82020260B1F90020A2F5806202EBF5
:1028E00082024260B1F90420A2F5806202EB82020A
:1028F0008260B1F90610A1F5806101EB8101C16030
:102900007047042200E005220274DDE7062101740D
:102910007047000080020020B40000200D4910B56F
:10292000096840F2726048630B48C168B1F5FA6FFC
:1029300001DD0A4906E011F5FA6F02DA41F294115D
:1029400000E00021C0F8F410FEF7A4F8BDE8104044
:1029500000F036B8F0020020B40000206CEEFFFF5B
:1029600010B500224FF480511148FFF71FF80022E4
:1029700001211048FFF71AF80F4C002204212046CD
:10298000FFF714F8002208212046FFF70FF80B4943
:102990000020886048600860C1F8F400C1F8C400F5
:1029A000C1F8940048664863BDE8104000F008B8DC
:1029B000001002400004024000080240B400002061
:1029C00010B5FDF735FFBDE8104000F09FBB0000DB
:1029D00070B5184C1848194D22684FF48051B2F563
:1029E0007A7F04DD0022FEF7E1FF012208E012F504
:1029F0007A7F01DA012200E00022FEF7D7FF0022F1
:102A000001212846FEF7D2FFE068B0F5FA6F01DD3C
:102A10000B4806E010F5FA6F02DA41F2941000E07C
:102A20000020C4F8F400FDF703FFBDE8704000F09B
:102A30006DBB0000B4000020001002400004024002
:102A40006CEEFFFF10B5012240210548FEF7AEFFF6
:102A50000022BDE8104004210248FEF7A7BF000095
:102A600000100240000802402DE9F0413C483D4E74
:102A70000246D0F8081192ED410AD2ED480A3A4ACE
:102A8000BDEEC00A53426FF4996540F6AC54B142B2
:102A900009DC00BF10EE101A34E0426046E09942B3
:102AA00044DD436042E02F4E304FF6430E44BE42B9
:102AB0001AD810EE101A6FF0E004611A00EE101A26
:102AC000B8EEC00A20EE800ABDEEC00A10EE101A61
:102AD0004160914201DA426002E0994200DD4360C8
:102AE00040F6B831016025E0214E224F0E44BE422F
:102AF000D0D9214D214E0D44B54212D810EE101AF6
:102B00006FF43575691A00EE101AB8EEC00A20EE9F
:102B1000800ABDEEC00A10EE101A41609142BEDA82
:102B2000BBE7174A1144174A914201D8046001E0FB
:102B30000321017490ED430AD0ED5E0ABDEEC00A98
:102B4000B8EEC00A20EE800ABDEEC00A80ED020A8F
:102B5000FDF7A0FFFDF76CFEBDE8F04100F0D6BA2E
:102B6000B40000200040CE4460F0FFFFFFDF7C0097
:102B7000FFDFB4BAFF4F4900FF8F6BBAFF0F27008A
:102B8000FF7F44BAFFDF2E0002494FF4FA60096864
:102B900048637047F00200200F4810B50D490160EE
:102BA0000321416000214FF400228160C0E903123B
:102BB0004FF440124261017641768176C176017709
:102BC0004177FEF71BFB002803D0BDE81040FDF75E
:102BD0005FBF10BD00640040A00200200F4810B588
:102BE0000D4901600321416000214FF40022816002
:102BF000C0E903124FF440124261017641768176BA
:102C0000C17601774177FEF7F9FA002803D0BDE8D5
:102C10001040FDF73DBF10BD00680040C802002015
:102C2000114808B5016841F4800101600068002284
:102C300000F48000009005213920FEF747FF39207D
:102C4000FEF738FF002205213A20FEF73FFF3A2029
:102C5000FEF730FF002205214520FEF737FFBDE8D3
:102C600008404520FEF726BF3038024010B592B02C
:102C700000200F9001210FA801F040FB184C00220A
:102C80000121206117480068109010A801F060FB36
:102C90000221E06001F06EFB12491422091D684612
:102CA000FDF72FFB0021684601F03BFB0D4920603A
:102CB0001422183105A8FDF724FB002105A801F016
:102CC00030FB0849606014222C310AA8FDF719FB7B
:102CD00000210AA801F025FBA06012B010BD000081
:102CE0000C000020145A00082DE9F04F87B0142181
:102CF0006846FDF71FFB67480024016841F010019A
:102D00000160016801F010010591016841F0400186
:102D10000160016801F040010591016841F0020184
:102D20000160016801F002010591016841F00101B3
:102D30000160016801F001010591016841F008019D
:102D40000160016801F008010591016841F004018A
:102D50000160016801F004010591016841F480718E
:102D60000160016801F480710591016841F0800102
:102D70000160016801F080010591016841F02001C6
:102D800001600068DFF810B100F02000059000221B
:102D900044F601015846FEF709FE4FF4FF79002280
:102DA00049463E48FEF702FE44F2030A002251461D
:102DB0003B48FEF7FBFD002203213A48FEF7F6FDF3
:102DC000002230215846FEF7F1FD012541F2710045
:102DD000CDE900050226CDE9025669465846FEF7C0
:102DE000FBFC4FF008083048CDF80080CDE9010425
:102DF00069462C48FEF7F0FC60200090CDE90164A4
:102E00000327CDE9034769462848FEF7E5FCCDF8DE
:102E10000090CDE90154694620480394FEF7DCFC9C
:102E200028030090CDE90164CDE9034669462048B6
:102E3000FEF7D2FC4FF41860CDE9000602AA6946FD
:102E400082E890015846FEF7C7FCCDF800A0CDE916
:102E50000154694612480394FEF7BEFC0097CDE981
:102E6000015469460F480394FEF7B6FC0C2000900D
:102E7000CDE9015469460F480394FEF7ADFC0022EA
:102E800005210920FEF722FE0920FEF713FE07B0F8
:102E9000BDE8F08F303802400010024000180240B8
:102EA0000014024000040240000011100020024003
:102EB000000C02400008024010B58AB000240794BC
:102EC0001C2168460894FDF735FA1A484FF08041F6
:102ED00001605421C0E9011444F61F61C0E90314E4
:102EE000FFF755FA08B1FDF7D3FD079407A911487C
:102EF0000894FFF7B7F808B1FDF7CAFD602000900D
:102F00004FF47A70CDE9010400226946094804941F
:102F1000FFF7D5F908B1FDF7BBFD04226946054866
:102F2000FFF7CDF908B1FDF7B3FD0248FFF79EF9B1
:102F30000AB010BDF00200200D4810B50B49016029
:102F40000C49416000214FF480628160C0E90312A6
:102F50000C22C0E90521C161FFF770FA002803D0F7
:102F6000BDE81040FDF794BD10BD00000010014009
:102F70002C030020A08601000C4810B50A4901600E
:102F80004FF4E1314160002181600C22C160C0E951
:102F900004128161C161FFF751FA002803D0BDE836
:102FA0001040FDF775BD10BD001401406C030020FA
:102FB000FEE770470907090E002806DA00F00F0047
:102FC00000F1E02080F8141D704700F1E02080F847
:102FD0000014704710B5D0E90621891A01624269D0
:102FE000D0ED010A8B1A00EE103A90ED021A036937
:102FF000B8EEC00A0B44544203EB440360EE200ACF
:1030000000EE101AB8EEC00A41EE000A00EE103AC7
:1030100090ED031AB8EEC00A41EE000A90ED090ADD
:10302000B8EEC00A30EE800ABDEEC00A10EE103ACB
:103030004362C0E90421816A8B4200DD4162426A39
:1030400049428A4200DA416210BD000012490888F4
:10305000C0F30A02114802804A78D3088A7843EA0A
:103060004213C3F30A034380CB78920942EA8303F5
:103070000A7943EA8223C3F30A0383804979520819
:1030800042EAC112C2F30A02C2808A090272C1F383
:1030900001114172FFF7EEBB5402002080020020B4
:1030A00010B54FF4D0711848FDF744F916480021C7
:1030B000F2EE0E0AB7EE000A40F6AC5301EB410205
:1030C00000EB0212491CC2ED070A82ED080A82EDEC
:1030D000090A13640529F1DB03210174B2EE041A15
:1030E00080ED481A80ED4A0A80ED490A80ED531AB6
:1030F00080ED550A80ED540AC0ED5E0A80ED600A4D
:1031000080ED5F0A10BD0000B400002038B5124CFD
:10311000207C032816D0B4F8CC0000B20090B4F89C
:103120009C0003B2B4F86C0002B2A08F01B20B484D
:10313000FDF702FCB4F8FC0001B2BDE838400748D6
:10314000FDF723BC002003460246014600900348D9
:10315000FDF7F2FB0021F0E7B4000020A002002000
:103160007047704710B5502080F31188BFF34F8F20
:10317000BFF36F8F02F084FA18B104494FF080500A
:103180000860002080F3118810BD000004ED00E00D
:1031900030B593B030216846FDF7CCF814210CA867
:1031A000FDF7C8F819480025016841F08051016019
:1031B000006800F0805011901548016841F44041CA
:1031C00001600068022400F440401190012000904A
:1031D000000401908001CDE9064006200890A82057
:1031E000CDE9090404200B906846FEF7ABFD0CA95D
:1031F0000F2081E831004FF4A0500F90E0021090B2
:1032000005210CA8FEF794FC13B030BD40380240F5
:10321000007000401048016841F4700101600F48DF
:10322000016841F0010101600C4A0021083211607F
:1032300002680B4B1A400260031D0A4A1A600268BA
:1032400022F48022026005480C30016002495806D1
:10325000803908607047000088ED00E000380240C7
:10326000FFFFF6FE103000240148FEF74CBF0000BF
:10327000CC040020F0B50268234B244D244E254F8A
:10328000254C4FF0804C984209D0604507D0A842A9
:1032900005D0B04203D0B84201D0A04204D122F000
:1032A000700E4A6842EA0E0298421BD0604519D05F
:1032B000A84217D0B04215D0B84213D0A04211D0C6
:1032C000164DA8420ED0164DA8420BD0154DA8425F
:1032D00008D0154DA84205D0144DA84202D0144D77
:1032E000A84203D122F44075CA682A4302608A6862
:1032F000C2620A688262984201D0A04201D1096983
:10330000016301214161F0BD000001400004004063
:1033100000080040000C0040000401400040014053
:10332000004401400048014000180040001C0040DB
:103330000020004010B50123046A8B409C430462C6
:10334000036A8A401343036210BD000030B5026A6D
:1033500022F001020262026A436884690D6824F067
:103360007304254322F002048A6822430B4CA042D6
:1033700002D00B4CA0420BD122F00804CA6823F4FF
:10338000407322434C6922F004021C438B6923439F
:103390004360856149684163026230BD00000140BD
:1033A0000004014030B5026A22F010020262026A93
:1033B000436884690D6824F4E64444EA05248D6872
:1033C00022F0200242EA05120D4DA84202D00D4D16
:1033D000A8420ED1CD6822F0800242EA05124D6962
:1033E00023F4406343EA85038D6922F0400243EAF7
:1033F00085034360846149688163026230BD0000D7
:10340000000001400004014030B5026A22F48072DD
:103410000262036A4268C46923F4007324F07305EE
:103420000C682C438D6843EA05230D4DA84202D059
:103430000C4DA8420ED1CD6823F4006343EA052366
:103440004D6922F4405242EA05128D6923F48063EB
:1034500042EA05124260C4614968C163036230BD3B
:10346000000001400004014030B5026A22F480529D
:103470000262046A4268C3690D6823F4E64343EAC2
:1034800005238D6824F4005444EA0534084DA8420D
:1034900002D0084DA84204D14D6922F4804242EA8C
:1034A00085124260C36149680164046230BD000056
:1034B000000001400004014070B5846B2068406941
:1034C00094F83910C0F3C0100025212904D118B197
:1034D000E584204600F046F82068406994F83A10E8
:1034E000C0F38010222904D118B1E585204600F0F0
:1034F0002BF8E06B40F01000E0632046FEF79DFFE4
:1035000070BD10B50146806B09680968C90513D400
:103510000021C1850168CA6822F48072CA6001680E
:103520004A6922F001024A6101684A6922F04002B8
:103530004A61202180F83A10FFF7B4F810BD10B5A9
:10354000806BFFF7D1F810BD0168CA6822F4907251
:10355000CA6001684A6922F001024A61202180F8AC
:103560003A1070470168CA6822F0C002CA60202180
:1035700080F83910704700002DE9F04104460068DA
:10358000016921F44052E168114301612168C86872
:1035900049F20C6290432369A268E5691A436369A2
:1035A0002B431A430243CA602168486920F44072E1
:1035B000A06910434861E1696425B1F5004F97485F
:1035C000974A21684FF032083FD0914201D08142A2
:1035D0007CD1FEF775FB00EBC00101EB00106168C8
:1035E0008900B0FBF1F6FEF76BFB00EBC00101EBCD
:1035F000001061688900B0FBF1F0B0FBF5F06FF0EE
:103600001801484306EB800108EB0110B0FBF5F010
:1036100000F0F006FEF754FB00EBC00101EB0010D8
:1036200061688900B0FBF1F0B0FBF5F006EB001625
:10363000FEF746FB00EBC00101EB0010616889005A
:10364000B0FBF1F7FEF73CFBD2E0914201D08142A2
:103650003DD1FEF735FB00EBC00101EB00106168C6
:103660004900B0FBF1F0B0FBF5F00601FEF728FBD6
:1036700000EBC00101EB001061684900B0FBF1F7FD
:10368000FEF71EFB00EBC00101EB00106168490072
:10369000B0FBF1F0B0FBF5F06FF01801484307EB19
:1036A000800108EBC100B0FBF5F000F0F80006EB7C
:1036B0004006FEF705FB00EBC00101EB001061685E
:1036C0004900B0FBF1F7FEF7FBFA3CE055E0FEF7EE
:1036D000E7FA00EBC00101EB001061684900B0FBA4
:1036E000F1F0B0FBF5F00601FEF7DAFA00EBC001ED
:1036F00001EB001061684900B0FBF1F7FEF7D0FA6A
:1037000000EBC00101EB001061684900B0FBF1F073
:10371000B0FBF5F06FF01801484307EB800108EBB0
:10372000C100B0FBF5F000F0F80006EB4006FEF734
:10373000B7FA00EBC00101EB001061684900B0FB73
:10374000F1F7FEF7ADFA00EBC00101EB0010616884
:103750004900B0FBF1F0B0FBF5F06FF01801484301
:1037600007EB800108EBC100B0FBF5F000F00700AB
:10377000216830448860BDE8F081FEF791FA00EBE3
:10378000C00101EB001061688900B0FBF1F6FEF7A3
:1037900087FA00EBC00101EB001061688900B0FB03
:1037A000F1F0B0FBF5F06FF01801484306EB800133
:1037B00008EB0110B0FBF5F000F0F006FEF770FA30
:1037C00000EBC00101EB001061688900B0FBF1F073
:1037D000B0FBF5F006EB0016FEF762FA00EBC00155
:1037E00001EB001061688900B0FBF1F7FEF758FAB1
:1037F00000EBC00101EB001061688900B0FBF1F043
:10380000B0FBF5F06FF01801484307EB800108EBBF
:103810000110B0FBF5F000F00F00A9E70014014023
:1038200000100140FEE703B401984100009850EAFF
:10383000C12018BF04204A0D18BF40F0010040F21B
:10384000FF72B2EB515F08BF40F00200012808BFD1
:10385000052002B07047000010B52F499FED2C1BCA
:103860002DED020B84B0059820F000408842D8BFAF
:103870009DED040B2DDD2949884209D1049840B9FA
:103880004FF0010000F0D4FC00F0A2FC06B010BD27
:1038900005DB9DED040B00F08FFC06B010BD684603
:1038A0009DED040B00F0A0F810F0030004BF9DEDA7
:1038B000021B9DED000B0CD001280ED09DED021BCC
:1038C0009DED000B022817D0012000F0DDFB06B0B3
:1038D00010BD00F0A5FA06B010BD9DED021B9DEDD8
:1038E000000B012000F0D0FB51EC100B81F00041E7
:1038F00006B041EC100B10BD00F092FA51EC100B29
:1039000081F0004106B041EC100B10BD000000003A
:103910000000000000000000FB21E93F0000F07FF4
:1039200010B52F499FED2C1B2DED020B84B005988F
:1039300020F000408842DCBF00209DED040B32DD0A
:103940002849884209D1049840B94FF0010000F09D
:103950006FFC00F03DFC06B010BD05DB9DED040BD7
:1039600000F02AFC06B010BD68469DED040B00F087
:103970003BF810F0030011D0012818D09DED021B78
:103980009DED000B02281AD000F04AFA51EC100B02
:1039900081F0004106B041EC100B10BD9DED021B03
:1039A0009DED000B012000F06FFB06B010BD9DEDFA
:1039B000021B9DED000B00F033FA06B010BD012094
:1039C00000F062FB51EC100B81F0004106B041ECBD
:1039D000100B10BD000000000000000000000000FF
:1039E000FB21E93F0000F07F2DE9F14F04462DED6A
:1039F000020B2DED088B8AB09FEDE70B80ED020BDB
:103A0000139EE74826F0004585420ADC9DED120B27
:103A1000002084ED000B0AB0BDEC088B03B0BDE8BC
:103A2000F08FE0489FEDE0AB9FEDE1BBA84247DDA2
:103A3000E14F9FEDE39B9FEDE48B9DED120B53EC6B
:103A40001A2B51EC100B002E1CDDFCF71FFD41EC76
:103A5000100BBD4208D053EC1B2B51EC100BFCF7A4
:103A600015FDC4E900010BE053EC192B51EC100BD0
:103A7000FCF70CFD53EC182BFCF708FDC4E9000122
:103A80000120C8E7FCF761FC41EC100BBD4208D0F7
:103A900053EC1B2B51EC100BFCF757FCC4E9000155
:103AA0000BE053EC192B51EC100BFCF74EFC53ECD4
:103AB000182BFCF74AFCC4E900014FF0FF30AAE7DD
:103AC000C348A84279DB9DED120B51EC100B00F0BE
:103AD000B5FB41EC180B9FEDC00B53EC102BFCF722
:103AE000DBFC9FEDBF1B53EC112BFCF72EFCFCF70E
:103AF00056FD0746FCF742FD41EC190B53EC1A2B1F
:103B0000FCF7CAFC53EC182BFCF7C3FC41EC180B78
:103B100053EC1B2B51EC190BFCF7BEFCDFF8C8A2D1
:103B200041EC100B4FEA15580125FA4453EC102BC9
:103B300051EC180BFCF7AAFC032DC4E900013DD0A1
:103B4000C1F30A5005EB4511A8EB00001139814281
:103B500034DA0AEB051BB0EE48AA9BED000BF0EE41
:103B600068AA53EC102B51EC190BFCF795FC41ECB7
:103B70001B0B51EC1A0B53EC1B2BFCF787FC41EC95
:103B8000180B51EC1A0B53EC182BFCF77FFC53EC81
:103B90001B2BFCF77BFC9BED020B41EC1A0B53EC4F
:103BA000102B51EC190BFCF777FC53EC1A2BFCF79C
:103BB0006DFC41EC100B6D1CB8E70EE0002EA8BFA9
:103BC0003846BFF628AF94ED000B51EC100B81F096
:103BD0000041C4E9000178421DE7C6F3130040F438
:103BE000801EC6F30A50A0F2F530471100F01F0501
:103BF000C5F12000DDF848B008900020069007903D
:103C00000520EC467949002D07EB0002794408BFF6
:103C100051F8221009D051F8223001EB8201AB405B
:103C20004A68089922FA01F11943A1FB0E26A1FB6B
:103C30000B131A449A4234BF0123002303EB0608F6
:103C40000CEB8003D3E901A60E448E4234BF012160
:103C5000002192448A4411B1924502D903E0924571
:103C600001D2012100E00021C3E901A641444CF842
:103C70002010011EA0F10100C4DC029800F10050E8
:103C8000850F0298DDE903678000DDF81480FCF7FA
:103C900075FC41EC1A0B3046FCF7AFFD9FED541B51
:103CA00053EC112BFCF7F8FB41EC1B0B3846FCF7EF
:103CB000A4FD9FED511B53EC112BFCF7EDFB41ECE8
:103CC000180B4046FCF799FD9FED4D1B53EC112B53
:103CD000FCF7E2FB41EC190B51EC180B53EC192BE0
:103CE000FCF733FB53EC1B2BFCF72FFB53EC1A2B8D
:103CF000FCF72BFBCDE90801002008909DED080B97
:103D000053EC1A2B51EC100BFCF7C0FB53EC1B2BA4
:103D1000FCF7BCFB53EC182BFCF7B8FB53EC192B4E
:103D2000FCF7B7FB9FED381B53EC112BFCF7B4FBF2
:103D30009FED370B41EC180B53EC102B9DED080B4E
:103D400051EC100BFCF7A8FB53EC182BFCF7FDFA19
:103D50009FED310B41EC180B53EC102B9DED080B34
:103D600051EC100BFCF798FB53EC182BFCF7EDFA19
:103D700041EC100B139810F0004F06D06D4251EC3F
:103D8000100B81F0004141EC100B284684ED000B34
:103D900041E60000000000000000000000000000FC
:103DA000FB21E93F7CD9024000004054FB21F93F50
:103DB0003163621A61B4D03DFB21F93F000000007D
:103DC0000000601A61B4D03D7370032E8A19A33BC2
:103DD000FB2139410000000083C8C96D305FE43F1A
:103DE000000000000000E03F7A1F0000C81E000035
:103DF000000000000000103E000000000000103C29
:103E0000000000000000103A182D4454FB21F93D39
:103E10003326A611460B113C00000054FB21F93D4E
:103E200010B52DED040B2DED088B82B0B0EE419A4C
:103E3000F0EE619A0B9820F000449FED4BABB4F18B
:103E4000795F11DA9DED0A0B51EC100BFCF7A7FB23
:103E5000002801BFB0EE4A0AF0EE6A0A02B0BDECDB
:103E6000088B04BF04B010BD9DED0A0B53EC102B62
:103E700051EC100BFCF710FB41EC180B3C480621F1
:103E8000B0EE480AF0EE680A784400F081F853EC8E
:103E9000182B51EC100BFCF7FFFA9DED0A0B41ECCF
:103EA0001B0B53EC192B51EC100BFCF7F5FA41EC02
:103EB000190B53EC1B2B51EC180BFCF7EDFA53ECE0
:103EC000192BFCF7E3FA9FED2C0B41EC190B53EC8B
:103ED000102B51EC180BFCF7DFFA41EC100B2848C3
:103EE000844210DA53EC192B51EC100BFCF7CEFA8C
:103EF00053EC1A2BFCF7CDFA41EC100B02B0BDECE1
:103F0000088B04B010BD1F48A042BCBF9FED1E1B14
:103F10008DED001B06DBA4F5001001900020009041
:103F20009DED001B51EC100B53EC112BFCF7AEFA7E
:103F30009DED000B41EC180B53EC102B51EC1A0BC0
:103F4000FCF7A4FA41EC1A0B53EC192B51EC180BAB
:103F5000FCF79CFA53EC1A2BFCF79BFA41EC100B84
:103F6000CCE7000000000000000000000000F03F6F
:103F7000EC1B000000000000000000000000E03F1B
:103F80003333D33F0000E93F000000000000D23F80
:103F900070B504462DED028B4D1E00EBC500B0EE52
:103FA000408AF0EE608A90ED000B35F0060017D0E5
:103FB00053EC182B51EC100BFCF76EFA41EC100B84
:103FC0006D1E04EBC50090ED001B51EC100B53EC83
:103FD000112BFCF7BAF941EC100B35F00600E7D1D4
:103FE000022D36D0042D1CD0062D1CBFBDEC028B3B
:103FF00070BD53EC182B51EC100BFCF74DFA94EDFF
:104000000A1B53EC112BFCF7A0F953EC182BFCF70F
:1040100043FA94ED081B53EC112BFCF796F941EC95
:10402000100B53EC182B51EC100BFCF735FA94EDF8
:10403000061B53EC112BFCF788F953EC182BFCF7FB
:104040002BFA94ED040B53EC102BFCF77EF941ECAA
:10405000100B53EC182B51EC100BFCF71DFA94EDE0
:10406000021B53EC112BFCF770F953EC182BFCF7E7
:1040700013FA94ED001B53EC112BFCF766F9BDEC21
:10408000028B41EC100B70BD31B504462DED040BD5
:104090002DED0A8BB0EE41BAF0EE61BA0B989DEDB2
:1040A0000A0B20F00040B0F1795F0DDA51EC100BF3
:1040B000FFF7B9FB042808BF00F09AF89DED0A0B42
:1040C000BDEC0A8B05B030BD53EC102B51EC100B3E
:1040D000FCF7E2F941EC180B9DED0A0B53EC182BA1
:1040E00051EC100BFCF7D8F941EC190B2C48B0EE51
:1040F000480AF0EE680A05217844FFF749FF9FED72
:104100002ACBB0EE40AAF0EE60AA9CB353EC1C2B75
:1041100051EC190BFCF7C0F941EC1C0B53EC1A2BBA
:1041200051EC190BFCF7B8F99FED210B41EC190B81
:1041300053EC102B51EC1B0BFCF7AEF953EC192B85
:10414000FCF7A4F953EC182BFCF7A6F953EC1B2B46
:10415000FCF79CF953EC1C2BFCF798F99DED0A1B1E
:1041600053EC112BFCF795F9BDEC0A8B05B041EC33
:10417000100B30BDFFE753EC1A2B51EC180BFCF77A
:104180008BF953EC1C2BFCF7E0F853EC192BFCF7E4
:1041900083F99DED0A1B53EC112BFCF7D6F8E3E7EE
:1041A000741A000000000000495555555555C5BF0B
:1041B000000000000000E03F10B553EC102B51EC64
:1041C000100BFCF7C2F841EC100B10BD0000000012
:1041D0009FED050B10B553EC102B51EC100BFCF7B9
:1041E0009DFA41EC100B10BD000000000000000023
:1041F0009FED050B10B553EC102B51EC100BFCF799
:104200004BF941EC100B10BD000000000000001045
:1042100002E008C8121F08C1002AFAD1704770478F
:10422000002001E001C1121F002AFBD170470000ED
:104230000149086070470000B000002082B0CDE95D
:10424000000121F0004001909DED000B02B051EC07
:10425000100B7047EFF30580002800D00120704755
:10426000FDF7B8FBFEF794FFFEF73EFDFEF7D8FC26
:10427000FEF792FCFEF7B2FCFEF75EFEFEF77CFE58
:10428000FEF71AFE0D48FDF731FF00210B48FEF73F
:10429000ADF801220A490B48FEF7B8F912220A4983
:1042A0000A48FEF7B3F90A48FCF718FB0948FCF77F
:1042B00015FBFEF7DBFC00F01CF8FEE7F002002027
:1042C000000000206C030020540200202C0300207A
:1042D000A0020020C802002001460020842900D04E
:1042E000C81C704710B500B9012000F095FD0020F2
:1042F00010BD10B500F044FE002010BD10B501291E
:1043000001D0002010BD03220021012000F016FF83
:10431000040004D000231A46194601F02DF8204667
:1043200010BD3EB504460D46B0F90800FFF7D4FFB6
:1043300002A9CDE90001208A2B4682B2D4E90010FF
:1043400001F05EF9012801D000203EBD02983EBD7B
:1043500008B500680090012907D0002013460246E6
:10436000012103A001F0D8FA08BD0120F6E7000002
:10437000000000002DE9FC41002507462E4601956E
:104380000C0000D10124FFF765FF009690B101AB4E
:1043900022460921384601F00DFB012812D101986F
:1043A00088B10A494FF080500860BFF34F8FBFF3C8
:1043B0006F8F08E0002322460421384601F0FAFA04
:1043C000012800D0FF252846BDE8FC8104ED00E06F
:1043D0002DE9F041184C0F460546E6682068001D9F
:1043E00000F004FC38B9206890F82C1001208840B7
:1043F000216981432161681C07D137B12168BDE87B
:10440000F0410E48091D00F029BC20683544B54232
:104410004560216805D2A06BBDE8F041091D00F0A0
:1044200005BC606B091D00F001FCA06A854200D24A
:10443000A562BDE8F08100003C00002024060020B9
:104440002DE9F041054600F015FC2E4CA068401CFB
:10445000A06020682C4F10B1606940B32DE025604A
:10446000A068012829D1002606EB860007EB800012
:1044700000F0CEFB761C072EF6D323488C3000F0DC
:10448000C7FB2148A03000F0C3FB1F48B43000F048
:10449000BFFB1D48C83000F0BBFB1B48DC3000F000
:1044A000B7FB19488C3060631430A06305E02068C6
:1044B000E96AC06A884200D82560606A401C606270
:1044C000E96A0120226988401043206101EB8100E4
:1044D00007EB8000291D00F0C1FB00F0EBFB6069D9
:1044E00000280CD02068E96AC06A884207D20749D0
:1044F0004FF080500860BFF34F8FBFF36F8FBDE860
:10450000F08100003C0000204805002004ED00E0A0
:1045100010B500F0AFFB0E4C2068A0B90D4800F0BC
:1045200077FB0C48143000F073FB0A48E06014304D
:10453000206100220C210A2000F000FE206010B152
:1045400005A100F033FCBDE8104000F0B3BB000053
:104550007800002038060020546D725100000000E1
:1045600070B5114E114C17E000F042FD3068B8B143
:1045700001F070F900F07EFBF068C568281D00F0BE
:1045800035FBA068401EA0606068401E606000F0BF
:1045900091FB284600F055F860680028E4D170BD12
:1045A00001F058F9F8E70000100600203C00002058
:1045B00030B4026C0B46002A0BD0C1681144C160B4
:1045C0004468A14201D30168C16030BC1846FBF7C2
:1045D00098BE30BC70472DE9F041856B1746044604
:1045E0000026026C82B1C7B1E068FBF78AFEE16881
:1045F000206C091AE1602268914202D26168081AAF
:10460000E060022F16D017E02068A8B9606801F0BA
:104610009BF80646002060600EE0A068FBF771FE84
:10462000216CA0680844A0606168884204D32068B7
:10463000A06001E005B16D1E6D1CA5633046BDE8AC
:10464000F08110B50446006B00F048FB2046BDE841
:10465000104000F043BB00000F4847F230514207C2
:1046600005D0C01D0C4A20F00700821A891A0B4A97
:1046700000230144C2E900030839103A21F0070180
:1046800011604B600B600B1AC0E9001393604FF090
:1046900000405360D0607047600600209C000020FE
:1046A000074C4FF08056074DFFF75AFF206801284E
:1046B000FAD92E60BFF34F8FBFF36F8FF4E700007E
:1046C0004805002004ED00E02DE9F0479A46DDE9B9
:1046D000098481466FF00303206B03EB82021044D0
:1046E000089D20F00706700707D0502080F311883E
:1046F000BFF34F8FBFF36F8FFEE723180A5C83F879
:1047000034200A5C12B1401C1028F6D3002784F82C
:104710004370072D00D30625E562C4E91157201D1B
:1047200000F081FA04F1180000F07DFA2461C5F16F
:1047300007006462A061E76484F8507052464946FD
:10474000304600F03DFA2060B8F1000F01D0C8F803
:104750000040BDE8F087000030B5114900E0114687
:104760000A688242FBD34B685C18844203D14068DC
:1047700018444860084643681C18944209D1084C04
:10478000103C2468A24209D052681A4442600A6868
:1047900012680260814200D0086030BD0460F9E711
:1047A0009C00002070B5002441600B4D00619142D7
:1047B00006D8D11A8269914206D2011D286907E004
:1047C0009A4203D2994201D3012403E0011DE86813
:1047D00000F02CFA204670BD7800002010B5044689
:1047E00000F048FAA06B28B15FF0000400F062FA14
:1047F000204610BD0124F9E730B587B02B4D4BE0C2
:104800000498002848DB069C606910B1201D00F068
:10481000EDF902A800F0B6F8024604980A283BD247
:10482000DFE800F00505053A263705053A26059824
:10483000A169034601442046FFF7B4FF00B3616A53
:1048400020468847E069012826D10020009005987D
:10485000A169002342181946204601F0ABF878B947
:10486000502080F31188BFF34F8FBFF36F8FFEE7A7
:104870000598A06128B1811813462046FFF792FFE2
:104880000AE0502080F31188BFF34F8FBFF36F8F82
:10489000FEE7204600F022FA00231A4604A9286801
:1048A00000F070FC0028ABD107B030BD78000020CC
:1048B0002DE9FC410F46054600F09AFB01A800F0E7
:1048C00061F80446019818B100F0C4FFBDE8FC810E
:1048D000224EAFB130690068A8B30027291B3A46C1
:1048E000306800F077FA00F0B5FF0028EED11C49DF
:1048F0004FF080500860BFF34F8FBFF36F8FE5E735
:10490000A542EBD800F0A6FFF0682746C068C4684F
:10491000201D00F06BF9E069012810D1A0692B4639
:1049200041193A462046FFF73DFF40B100200346BB
:10493000014600902A46204601F03CF820B1616A09
:1049400020468847C2E707E0502080F31188BFF374
:104950004F8FBFF36F8FFEE70127BFE7780000207E
:1049600004ED00E00648416B096829B1416BC96854
:10497000C9684968816270474FF0FF31FAE700006B
:104980003C00002070B5054600F074FE064E04465B
:10499000B068844203D200F009F8012000E0002052
:1049A00028602046B46070BD78000020F8B5194D2D
:1049B0001FE0C068C4680668201D00F017F9616A2E
:1049C00020468847E069012813D1A0693044B042ED
:1049D00006D924616060211DE86800F027F908E02D
:1049E00000200346014600903246204600F0E2FFD8
:1049F00038B1E86801680029DBD12969C5E90310ED
:104A0000F8BD502080F31188BFF34F8FBFF36F8F35
:104A1000FEE700007800002008484068401C4FF086
:104A2000500080F3118804D0BFF34F8FBFF36F8F16
:104A3000FEE7BFF34F8FBFF36F8FFEE7A4000020A8
:104A4000074CE068016841B1C0680021D0F800005F
:104A5000FFF72EFFFFF7D0FEF3E701210020F7E775
:104A6000780000202DE9F041044600F003F994F9A4
:104A7000455004F1240609E0606A48B1304600F070
:104A8000AFFE08B100F0EEF96D1E6DB2002DF3DC43
:104A90004FF0FF3684F8456000F00CF900F0EAF8BA
:104AA00094F9445004F1100709E0206948B13846F0
:104AB00000F096FE08B100F0D5F96D1E6DB2002D24
:104AC000F3DC84F84460BDE8F04100F0F3B8000086
:104AD0002DE9F0410546002700F08AFA314E306892
:104AE00008B9FFF7B9FDF06805424BD1C5B30835E9
:104AF00068070ED005F00700C0F1080005446807FC
:104B000007D0502080F31188BFF34F8FBFF36F8F12
:104B1000FEE72DB37068854234D822481030014634
:104B20000C6801E020460C466168A94202D2216867
:104B30000029F7D131688C4224D0076821680160D0
:104B400060680837411B10290FD96019420708D047
:104B5000502080F31188BFF34F8FBFF36F8FFEE7B4
:104B600010E041606560FFF7F7FD61687068401A0A
:104B70007060B268904200D2B060F06801430020DB
:104B8000C4E9000100F066FE780707D0502080F3EA
:104B90001188BFF34F8FBFF36F8FFEE73846BDE834
:104BA000F08100008C0000200449086818B10868F2
:104BB000826C521C82640868704700003C00002030
:104BC00010B5031F4FF080741C601B1F21F0010102
:104BD0001960191F044B0B6014390A60091F6FF02C
:104BE000020244380A6010BD194A0008D0E90132B7
:104BF00001699A60D0E901235A604A68824201D172
:104C000082684A60002202610868401E086070479E
:104C100000F108014FF0FF32C0E90112C1600161EB
:104C200000210160704700210161704730B50B68B9
:104C30005A1C02D000F1080202E0026904E0224698
:104C4000546825689D42FAD953684B6099608A6020
:104C5000516008610168491C016030BD42684A60CA
:104C600093688B6093685960916008610168491C82
:104C700001607047502080F31188BFF34F8FBFF35E
:104C80006F8F0A494868401C486001280CD10848C9
:104C9000006810F0FF0F07D0502080F31188BFF399
:104CA0004F8FBFF36F8FFEE770470000A400002016
:104CB00004ED00E00849486828B1401E486001D171
:104CC00080F311887047502080F31188BFF34F8F15
:104CD000BFF36F8FFEE70000A400002070B500282E
:104CE00027D0144DA0F108046168E868014207D19B
:104CF000502080F31188BFF34F8FBFF36F8FFEE713
:104D000022683AB1502080F31188BFF34F8FBFF370
:104D10006F8FFEE78143616000F06AF9606869683F
:104D2000084468602046FFF717FDBDE8704000F0BA
:104D300091BD70BD8C00002006484FF47A71006868
:104D4000B0FBF1F14FF0E020491E41610721016104
:104D5000704700003800002010B5FBF78BFA1149AE
:104D600010280ED300F1E02090F8F0030A7890426A
:104D700007D2502080F31188BFF34F8FBFF36F8F9E
:104D8000FEE709480068896800F4E060884207D9B6
:104D9000502080F31188BFF34F8FBFF36F8FFEE772
:104DA00010BD0000A40000200CED00E010B5084B81
:104DB000002200BF53F832401CB1521C082AF9D31C
:104DC00010BD43F8321003EBC201486010BD000073
:104DD0000805002070B515460E460446FFF74AFF49
:104DE00094F944100020491C01D184F8440094F93E
:104DF0004510491C01D184F84500FFF75BFFA06B0B
:104E000028B92A46314604F1240000F049F820462A
:104E1000BDE87040FFF726BE10B5020014D00F4861
:104E2000006B38B1502080F31188BFF34F8FBFF370
:104E30006F8FFEE700F0DCF800211046FFF7C8FA9C
:104E400000F008FD002807D105494FF080500860A8
:104E5000BFF34F8FBFF36F8F10BD00003C000020E9
:104E600004ED00E001490120C86170473C000020CA
:104E700010B50C4650B1094909681831FFF7D6FE44
:104E80002046BDE810400121FFF7A2BA502080F370
:104E90001188BFF34F8FBFF36F8FFEE73C000020F8
:104EA00070B514460D4668B10A4909681831FFF714
:104EB000D5FE0CB14FF0FF3521462846BDE87040C5
:104EC000FFF786BA502080F31188BFF34F8FBFF3EE
:104ED0006F8FFEE73C00002070B5040039D01D4DF7
:104EE000E06A2968C96A884233D2A069002804DBD5
:104EF0002868C06AC0F10700A061E16A164E01EBA4
:104F00008101606906EB810188421FD1201DFFF7F6
:104F10006DFE012150B9E06A00EB800256F82220B4
:104F200022B92A6901FA00F082432A612868C06A1E
:104F3000E0622A6981401143296100EB800006EBA1
:104F40008000211DBDE87040FFF788BE2868C06A58
:104F5000E06270BD3C0000204805002028B10749F0
:104F60000A6A0260C96841607047502080F3118866
:104F7000BFF34F8FBFF36F8FFEE700003C000020B0
:104F80001CB517480024CDE900402346802215A116
:104F9000164800F035FB012803D100F0E5FC01289C
:104FA00009D0401C1AD1502080F31188BFF34F8FD5
:104FB000BFF36F8FFEE7502080F31188BFF34F8F50
:104FC000BFF36F8F06484FF0FF312C38816201210B
:104FD0004161C460BDE81C4000F040B81CBD000049
:104FE0006800002049444C4500000000A14600082C
:104FF0000248016B491C0163704700003C0000201F
:105000001448016B11B10121C16170470021C161D8
:105010000169B1FA81F1C1F11F0101EB81020E4971
:1050200051F822306BB101EB820101F108034A68AB
:1050300052684A609A4201D152684A60D168016060
:105040007047502080F31188BFF34F8FBFF36F8FED
:10505000FEE700003C000020480500201CB5324857
:105060000168324A914207D1502080F31188BFF382
:105070004F8FBFF36F8FFEE700682C49491E8842AF
:1050800007D1502080F31188BFF34F8FBFF36F8F8C
:10509000FEE7274908780190FF20087008788DF80E
:1050A00000009DF800009DF8002000F0F000904204
:1050B00007D0502080F31188BFF34F8FBFF36F8F5D
:1050C000FEE79DF800001B4A00F05000107007201A
:1050D000906005E09DF800305B008DF80030401EC8
:1050E0009DF800301B06F5D4000200F4E0609060EB
:1050F000019808700C482030016841F4700101608B
:10510000016841F070410160FFF716FE0020506019
:10511000FBF776F80848016841F040410160FBF771
:105120005FF800201CBD000000ED00E071C20F41DF
:1051300000E400E0A400002034EF00E070B50E466B
:10514000050013D0D6B105FB06F04830FFF7C0FCD0
:10515000040009D004F1480120468EB10160C0E985
:105160000F56012100F0C4F8204670BD502080F396
:105170001188BFF34F8FBFF36F8FFEE70020E4E786
:105180000060ECE72DE9FF4F002683B09B468A467E
:10519000040003D0BAF1000F08D011E0502080F3D2
:1051A0001188BFF34F8FBFF36F8FFEE7206C38B1CC
:1051B000502080F31188BFF34F8FBFF36F8FFEE74E
:1051C00000F04AFADFF824814FF000094FF08057D1
:1051D00048B9059838B1502080F31188BFF34F8F3C
:1051E000BFF36F8FFEE7FFF745FDA56B45B3514653
:1051F0002046E668FFF7DCF9BBF1000F13D0E6604C
:10520000606A50B104F1240000F0EAFA28B1C8F84D
:105210000070BFF34F8FBFF36F8FFFF74BFD01207F
:1052200007B0BDE8F08F6D1EA563206810B9FFF7C9
:10523000BBFC606020690028EFD004F11000E3E7B8
:10524000059808B11EB106E0FFF734FD27E0684677
:10525000FFF784FE0126FFF72DFDFFF7C9FEFFF7DC
:1052600009FD94F94400401C01D184F8449094F95C
:105270004500401C01D184F84590FFF71BFD05A9AE
:10528000684600F087F9002820460AD0FFF7EAFBBD
:1052900000F0E0FA2046FFF7A1FA0028A3D0002092
:1052A000BEE7FFF79BFAD8B1206830B9FFF7E2FC00
:1052B0006068FFF711FEFFF7FDFC04F1240005997B
:1052C000FFF7D6FD2046FFF7CDFB00F0C3FA00281C
:1052D00089D1C8F80070BFF34F8FBFF36F8F82E79B
:1052E0002046FFF7BFFB00F0B5FA7CE704ED00E0D5
:1052F00070B50D46040025D0FFF7BCFCD4E90F20A3
:10530000216802FB001161600021A1632168A16096
:105310000A46D4E90F01401E00FB0121E16021464D
:105320004FF0FF3001F8440F487004F110008DB1C8
:10533000FFF76EFC04F12400FFF76AFCFFF7BAFCEC
:10534000012070BD502080F31188BFF34F8FBFF351
:105350006F8FFEE721690029F0D000F041FA0028A4
:10536000ECD004494FF080500860BFF34F8FBFF37B
:105370006F8FE3E704ED00E02DE9FF4782B01D46A3
:105380008A464FF00008040003D0BAF1000F08D09D
:1053900011E0502080F31188BFF34F8FBFF36F8F60
:1053A000FEE7206C38B1502080F31188BFF34F8F97
:1053B000BFF36F8FFEE7022D0AD1E06B012807D003
:1053C000502080F31188BFF34F8FBFF36F8FFEE73C
:1053D00000F042F93F4F4FF000094FF0805648B9B6
:1053E000049838B1502080F31188BFF34F8FBFF37A
:1053F0006F8FFEE7FFF73EFCA06BE16B884207D39F
:10540000022D05D00498D0B1B8F1000F1AD01EE0DB
:105410002A4651462046FFF7DEF8616A19B104F1C9
:10542000240000F0DDF920B13E60BFF34F8FBFF3E1
:105430006F8FFFF73FFC012006B0BDE8F087FFF754
:1054400039FC22E06846FFF789FD4FF00108FFF7BD
:1054500031FCFFF7CDFDFFF70DFC94F94400401C33
:1054600001D184F8449094F94500401C01D184F89E
:105470004590FFF71FFC04A9684600F08BF830B197
:105480002046FFF7EFFA00F0E5F90020D4E7FFF738
:10549000F1FBA06BE16B884213D1FFF70BFC04F129
:1054A00010000499FFF7E4FC2046FFF7DBFA00F058
:1054B000D1F900289ED13E60BFF34F8FBFF36F8FAD
:1054C00098E7FFF7F7FB2046FFF7CCFA00F0C2F9A8
:1054D00090E7000004ED00E02DE9F0471F469046FC
:1054E0008946040003D0B9F1000F08D011E0502024
:1054F00080F31188BFF34F8FBFF36F8FFEE7206CEF
:1055000038B1502080F31188BFF34F8FBFF36F8FF6
:10551000FEE7022F0AD1E06B012807D0502080F36C
:105520001188BFF34F8FBFF36F8FFEE7FFF714FCB7
:105530005020EFF3118680F31188BFF34F8FBFF334
:105540006F8FA06BE16B884206D3022F04D000203E
:1055500086F31188BDE8F08794F945503A464946EC
:105560002046FFF738F8681C04D06D1C84F84550BD
:105570000120EDE7606A0028FAD004F1240000F071
:105580002FF90028F4D0B8F1000FF1D00121C8F8AC
:105590000010EDE770B50D46040019D005B3FFF714
:1055A00069FB164AD1682868431C0FD02368126A29
:1055B000934202D062688A421AD96268891A81428B
:1055C00016D2401A28602046FFF7C8FC002410E0DD
:1055D000502080F31188BFF34F8FBFF36F8FFEE72A
:1055E000502080F31188BFF34F8FBFF36F8FFEE71A
:1055F0000124FFF75FFB204670BD00003C00002047
:105600002DE9FF5F8346DDE90E87994616468A46F7
:105610009000FFF75DFA05001AD05420FFF758FA02
:10562000040012D025630021CDE90241CDE90087B5
:105630004B46324651465846FFF746F82046FEF79D
:10564000FFFE012004B0BDE8F09F2846FFF746FBAF
:105650004FF0FF30F6E700000548416919B1006BD3
:1056600018B10020704701207047022070470000E9
:105670003C0000200148C068704700003C0000204A
:105680002DE9F0412E4C0027206B40B1A069401C51
:10569000A061E06900B101273846BDE8F081E66805
:1056A000761CE66013D1606B006838B1502080F33F
:1056B0001188BFF34F8FBFF36F8FFEE7606BA16B55
:1056C0006163A063206A401C2062FFF74BF9A06A67
:1056D000DFF87080864209D3606B006880B1606B30
:1056E000C068C568686886420DD2A0622068C06A3A
:1056F00000EB800158F821000128CAD90127C8E72A
:105700004FF0FF30F1E7281DFFF770FAA86A18B1D3
:1057100005F11800FFF76AFAE86A01212269814061
:105720001143216100EB800108EB8100291DFFF787
:1057300095FAE86A2168C96A8842CDD30127CBE788
:105740003C0000204805002070B504004FF0000127
:1057500040D0214D2868844207D0502080F3118822
:10576000BFF34F8FBFF36F8FFEE7A06C38B1401EC1
:10577000A064636CE26A9A422CD040B12AE05020C7
:1057800080F31188BFF34F8FBFF36F8FFEE7201DAB
:10579000FFF72CFA114A012150B9E06A00EB8003AF
:1057A00052F8233023B92B6901FA00F083432B61AF
:1057B000606CE062C0F10700A061E06A2B69814083
:1057C0001943296100EB800002EB8000211DFFF7E7
:1057D00045FA0121084670BD3C0000204805002024
:1057E0002DE9F041C068C468ACB104F11800074667
:1057F000FFF7FCF9154D286B0126A0B13946144876
:10580000FFF72CFAE06A2968C96A88421CD901208E
:10581000EE61BDE8F081502080F31188BFF34F8F17
:10582000BFF36F8FFEE7201DFFF7E0F9E16A2A69F9
:1058300006FA01F01043286101EB81000449B439F4
:1058400001EB8000211DDBE70020E2E73C000020A7
:10585000FC0500202DE9F0472C4D00242746286B3D
:1058600038B1FFF707FA286B401E2863286B40B158
:1058700046E0502080F31188BFF34F8FBFF36F8F46
:10588000FEE7A968224E0120D1B3A6F1B4098046F3
:105890003068E8B1F068C46804F11800FFF7A6F9B1
:1058A000201DFFF7A3F9E06A2A6908FA00F1114305
:1058B000296100EB800109EB8100211DFFF7CEF982
:1058C000E06A2968C96A8842E2D3C5F81C80DFE72C
:1058D0000CB1FFF747F8AC6944B14646FFF7D0FE7C
:1058E00000B1EE61641EF9D10020A861E86938B109
:1058F0000849012738070860BFF34F8FBFF36F8F48
:10590000FFF7D8F93846BDE8F08700003C000020DA
:10591000FC05002004ED00E02DE9F047074699461C
:1059200016460D462820DDF820A0FFF7D1F8040028
:105930000ED0B8464F46D1466DB1FEF7E9FD04F1F1
:105940001801C4F8008081E8E002201DFFF76BF920
:105950002046BDE8F087502080F31188BFF34F8FB9
:10596000BFF36F8FFEE700001CB5FEF7D1FD0D48B9
:10597000006868B10B490320091DCDE9000100232F
:105980004FF4807208A10A48FFF73AFE002807D1B9
:10599000502080F31188BFF34F8FBFF36F8FFEE766
:1059A0001CBD000078000020546D72205376630007
:1059B000414A0008FEB51E4613460200089D4FF0FE
:1059C000000014D0124C2768002F0FD0CDE900132F
:1059D0000292062915DAFFF73FFE02284FF0000376
:1059E0000DD0002269462068FFF7C6FCFEBD50209E
:1059F00080F31188BFF34F8FBFF36F8FFEE72A4606
:105A0000F0E70023324669463846FFF765FDFEBDE4
:105A10007800002063310008B05B000851280008BE
:105A2000000000000000000080000000A45B0008EF
:105A3000ED260008000000000000000080000000CB
:105A4000985B0008C9270008000000000000000063
:105A500000100000000610160006101600000000DE
:105A6000000000000102030406070809000000000E
:105A700001020304000000004C5555555555A53F43
:105A80007751C1166CC156BF9015CB19A001FA3ED3
:105A9000AD529C804F7E92BEC4B1B4BD9EEE213EFD
:105AA000D43888BEE9FAA8BD00004054FB21F93F74
:105AB0003163621A61B4D03D0000601A61B4D03D18
:105AC0007370032E8A19A33B0000002E8A19A33B92
:105AD000C14920259A837B390000000000000000A6
